:020000040800F2
:100000000050002045160008FD14000805150008E2
:100010000D150008151500081D150008000000004A
:10002000000000000000000000000000251500088E
:1000300031150008000000003D15000849150008B2
:100040008D1600088D1600088D1600088D16000804
:100050008D1600088D1600088D1600088D160008F4
:100060008D1600088D1600088D1600088D160008E4
:100070008D1600088D1600088D1600088D160008D4
:100080008D1600088D1600088D1600088D160008C4
:100090008D1600088D1600088D1600088D160008B4
:1000A00055150008691500087D1500089115000810
:1000B000A51500088D1600088D1600088D1600087D
:1000C0008D1600088D1600088D1600088D16000884
:1000D0008D160008B91500088D1600088D16000849
:1000E0008D1600088D1600088D160008000000000F
:1000F0000000000000000000000000000000000000
:0C01000000000000000000005FF808F1A3
:10010C0010B5054C237833B9044B13B10448AFF345
:10011C0000800123237010BDB000002000000000FF
:10012C000C4D000808B5034B1BB103490348AFF352
:10013C00008008BD00000000B40000200C4D000839
:10014C00034613F8012B002AFBD1181A013870470B
:10015C0081F0004102E000BF83F0004330B54FEA6C
:10016C0041044FEA430594EA050F08BF90EA020FD9
:10017C001FBF54EA000C55EA020C7FEA645C7FEA6C
:10018C00655C00F0E2804FEA5454D4EB5555B8BF8F
:10019C006D420CDD2C4480EA020281EA030382EA00
:1001AC00000083EA010180EA020281EA0303362D92
:1001BC0088BF30BD11F0004F4FEA01314FF4801C65
:1001CC004CEA113102D0404261EB410113F0004F77
:1001DC004FEA03334CEA133302D0524263EB43032E
:1001EC0094EA050F00F0A780A4F10104D5F1200ECC
:1001FC000DDB02FA0EFC22FA05F2801841F1000127
:10020C0003FA0EF2801843FA05F359410EE0A5F1FA
:10021C0020050EF1200E012A03FA0EFC28BF4CF02B
:10022C00020C43FA05F3C01851EBE37101F00045E1
:10023C0007D54FF0000EDCF1000C7EEB00006EEBEE
:10024C000101B1F5801F1BD3B1F5001F0CD3490878
:10025C005FEA30004FEA3C0C04F101044FEA4452CF
:10026C0012F5800F80F09A80BCF1004F08BF5FEA56
:10027C00500C50F1000041EB045141EA050130BD36
:10028C005FEA4C0C404141EB0101013C28BFB1F548
:10029C00801FE9D291F0000F04BF01460020B1FA93
:1002AC0081F308BF2033A3F10B03B3F120020CDA66
:1002BC000C3208DD02F1140CC2F10C0201FA0CF044
:1002CC0021FA02F10CE002F11402D8BFC2F1200CA9
:1002DC0001FA02F120FA0CFCDCBF41EA0C0190405F
:1002EC00E41AA2BF01EB0451294330BD6FEA0404A8
:1002FC001F3C1CDA0C340EDC04F11404C4F1200293
:10030C0020FA04F001FA02F340EA030021FA04F3A4
:10031C0045EA030130BDC4F10C04C4F1200220FAFB
:10032C0002F001FA04F340EA0300294630BD21FA39
:10033C0004F0294630BD94F0000F83F4801306BFFF
:10034C0081F480110134013D4EE77FEA645C18BFF3
:10035C007FEA655C29D094EA050F08BF90EA020F8A
:10036C0005D054EA000C04BF1946104630BD91EA82
:10037C00030F1EBF0021002030BD5FEA545C05D185
:10038C004000494128BF41F0004130BD14F58004C4
:10039C003CBF01F5801130BD01F0004545F0FE4138
:1003AC0041F470014FF0000030BD7FEA645C1ABF6D
:1003BC00194610467FEA655C1CBF0B46024650EAA4
:1003CC00013406BF52EA033591EA030F41F40021D0
:1003DC0030BD00BF90F0000F04BF0021704730B556
:1003EC004FF4806404F132044FF000054FF000012B
:1003FC0050E700BF90F0000F04BF0021704730B5EC
:10040C004FF4806404F1320410F0004548BF4042C0
:10041C004FF000013EE700BF42004FEAE2014FEA15
:10042C0031014FEA02701FBF12F07F4393F07F4FF0
:10043C0081F06051704732F07F4208BF704793F0F3
:10044C007F4F04BF41F40021704730B54FF4607406
:10045C0001F0004521F000411CE700BF50EA010209
:10046C0008BF704730B54FF000050AE050EA0102B2
:10047C0008BF704730B511F0004502D5404261EB22
:10048C0041014FF4806404F132045FEA915C3FF463
:10049C00D8AE4FF003025FEADC0C18BF03325FEA00
:1004AC00DC0C18BF033202EBDC02C2F1200300FAB1
:1004BC0003FC20FA02F001FA03FE40EA0E0021FAD6
:1004CC0002F11444BDE600BF70B54FF0FF0C4CF4C4
:1004DC00E06C1CEA11541DBF1CEA135594EA0C0F76
:1004EC0095EA0C0F00F0DEF82C4481EA030621EAB1
:1004FC004C5123EA4C5350EA013518BF52EA0335EC
:10050C0041F4801143F4801338D0A0FB02CE4FF09D
:10051C000005E1FB02E506F00042E0FB03E54FF0CD
:10052C000006E1FB03569CF0000F18BF4EF0010EC5
:10053C00A4F1FF04B6F5007F64F5407404D25FEAC1
:10054C004E0E6D4146EB060642EAC62141EA555174
:10055C004FEAC52040EA5E504FEACE2EB4F1FD0CB6
:10056C0088BFBCF5E06F1ED8BEF1004F08BF5FEA34
:10057C00500E50F1000041EB045170BD06F00046E6
:10058C0046EA010140EA020081EA0301B4EB5C0493
:10059C00C2BFD4EB0C0541EA045170BD41F480118B
:1005AC004FF0000E013C00F3AB8014F1360FDEBFB0
:1005BC00002001F0004170BDC4F10004203C35DA8C
:1005CC000C341BDC04F11404C4F1200500FA05F30F
:1005DC0020FA04F001FA05F240EA020001F00042B0
:1005EC0021F0004110EBD37021FA04F642EB060126
:1005FC005EEA430E08BF20EAD37070BDC4F10C0450
:10060C00C4F1200500FA04F320FA05F001FA04F213
:10061C0040EA020001F0004110EBD37041F10001FF
:10062C005EEA430E08BF20EAD37070BDC4F120050A
:10063C0000FA05F24EEA020E20FA04F301FA05F272
:10064C0043EA020321FA04F001F0004121FA04F21A
:10065C0020EA020000EBD3705EEA430E08BF20EAEA
:10066C00D37070BD94F0000F0FD101F00046400024
:10067C0041EB010111F4801F08BF013CF7D041EAA6
:10068C00060195F0000F18BF704703F000465200AA
:10069C0043EB030313F4801F08BF013DF7D043EA7B
:1006AC000603704794EA0C0F0CEA135518BF95EA31
:1006BC000C0F0CD050EA410618BF52EA4306D1D1B8
:1006CC0081EA030101F000414FF0000070BD50EAD7
:1006DC00410606BF1046194652EA430619D094EA61
:1006EC000C0F02D150EA013613D195EA0C0F05D14B
:1006FC0052EA03361CBF104619460AD181EA03019F
:10070C0001F0004141F0FE4141F470014FF0000056
:10071C0070BD41F0FE4141F4780170BD70B54FF0F1
:10072C00FF0C4CF4E06C1CEA11541DBF1CEA135571
:10073C0094EA0C0F95EA0C0F00F0A7F8A4EB050453
:10074C0081EA030E52EA03354FEA013100F088804A
:10075C004FEA03334FF0805545EA131343EA126313
:10076C004FEA022245EA111545EA10654FEA0026C8
:10077C000EF000419D4208BF964244F1FD0404F581
:10078C00407402D25B084FEA3202B61A65EB0305DD
:10079C005B084FEA32024FF480104FF4002CB6EB9A
:1007AC00020E75EB030E22BFB61A754640EA0C001A
:1007BC005B084FEA3202B6EB020E75EB030E22BF5A
:1007CC00B61A754640EA5C005B084FEA3202B6EB9B
:1007DC00020E75EB030E22BFB61A754640EA9C005A
:1007EC005B084FEA3202B6EB020E75EB030E22BF2A
:1007FC00B61A754640EADC0055EA060E18D04FEAE8
:10080C00051545EA16754FEA06164FEAC30343EA87
:10081C0052734FEAC2025FEA1C1CC0D111F4801F54
:10082C000BD141EA00014FF000004FF0004CB6E74D
:10083C0011F4801F04BF01430020B4F1FD0C88BFEC
:10084C00BCF5E06F3FF6AFAEB5EB030C04BFB6EBF7
:10085C00020C5FEA500C50F1000041EB045170BDEA
:10086C000EF0004E4EEA113114EB5C04C2BFD4EB17
:10087C000C0541EA045170BD41F480114FF0000E9B
:10088C00013C90E645EA060E8DE60CEA135594EA17
:10089C000C0F08BF95EA0C0F3FF43BAF94EA0C0F1A
:1008AC000AD150EA01347FF434AF95EA0C0F7FF48F
:1008BC0025AF104619462CE795EA0C0F06D152EAE3
:1008CC0003353FF4FDAE1046194622E750EA4106C7
:1008DC0018BF52EA43067FF4C5AE50EA41047FF4D8
:1008EC000DAF52EA43057FF4EBAE12E74A0011D28A
:1008FC0012F5001211D20DD56FF47873B3EB62526E
:10090C000ED44FEAC12343F0004343EA505323FA79
:10091C0002F070474FF00000704750EA013002D1EE
:10092C004FF0FF3070474FF00000704780B500AFBC
:10093C0000F0A8FE00F018F800F094F900F050F860
:10094C0000F0F0F800F064F9054801F0B9FE054834
:10095C0001F0B6FE002000F0E5F900BFFDE700BF96
:10096C00CC0000201401002080B590B000AF07F13E
:10097C00180328220021184603F032FD3B1D0022EB
:10098C001A605A609A60DA601A610223BB61012313
:10099C00BB621023FB6200237B6307F1180318462C
:1009AC0001F02EFA0346002B01D000F06BFC0F2354
:1009BC007B600023BB600023FB6000233B610023B2
:1009CC007B613B1D0021184601F09CFC0346002B6B
:1009DC0001D000F057FC00BF4037BD4680BD000081
:1009EC0080B596B000AF07F1480300221A605A6038
:1009FC009A60DA6007F1400300221A605A6007F12E
:100A0C00240300221A605A609A60DA601A615A61F3
:100A1C009A613B1D20220021184603F0E1FC3F4B5C
:100A2C003F4A1A603D4B07225A603C4B00229A60A9
:100A3C003A4B40F2E732DA60384B00221A61374BFE
:100A4C0000225A61354B00229A61344801F0E8FDCE
:100A5C000346002B01D000F015FC4FF48053BB640F
:100A6C0007F1480319462D4802F028FA0346002BDB
:100A7C0001D000F007FC294801F074FE0346002B5E
:100A8C0001D000F0FFFB00233B6400237B6407F1E3
:100A9C0040031946214802F0ADFD0346002B01D05E
:100AAC0000F0F0FB60237B624FF4FA73BB6200230F
:100ABC00FB6200233B6300237B630023BB630023A7
:100ACC00FB6307F1240300221946144802F034F9A1
:100ADC000346002B01D000F0D5FB00237B600023E4
:100AEC00BB600023FB6000233B6100237B614FF460
:100AFC000053BB6100233B623B1D1946074802F0C3
:100B0C00D7FD0346002B01D000F0BCFB034800F0DE
:100B1C0049FC00BF5837BD4680BD00BFCC0000204B
:100B2C00002C014080B58EB000AF07F128030022E5
:100B3C001A605A609A60DA6007F1200300221A608A
:100B4C005A603B1D00221A605A609A60DA601A6182
:100B5C005A619A612D4B4FF080421A602B4B072241
:100B6C005A602A4B00229A60284B40F2E732DA6036
:100B7C00264B00221A61254B00229A61234801F072
:100B8C004FFD0346002B01D000F07CFB4FF480534B
:100B9C00BB6207F1280319461C4802F08FF9034683
:100BAC00002B01D000F06EFB184801F0DBFD034672
:100BBC00002B01D000F066FB00233B6200237B621C
:100BCC0007F120031946114802F014FD0346002BCF
:100BDC0001D000F057FB60237B604FF4FA73BB60CD
:100BEC000023FB6000237B613B1D00221946074854
:100BFC0002F0A2F80346002B01D000F043FB03489F
:100C0C0000F0D0FB00BF3837BD4680BD140100207A
:100C1C0080B500AF114B124A1A60104B4FF41652AC
:100C2C005A600E4B00229A600C4B0022DA600B4B80
:100C3C0000221A61094B0C225A61084B00229A615E
:100C4C00064B0022DA61054802F095FD0346002BA5
:100C5C0001D000F017FB00BF80BD00BF5C0100207D
:100C6C000038014080B588B000AF07F110030022B6
:100C7C001A605A609A60DA60274B9B69264A43F0E7
:100C8C0020039361244B9B6903F02003FB60FB68FA
:100C9C00214B9B69204A43F0040393611E4B9B69D3
:100CAC0003F00403BB60BB681B4B9B691A4A43F0FF
:100CBC0008039361184B9B6903F008037B607B6806
:100CCC0000220421154801F083F800224FF4004162
:100CDC00134801F07DF804233B6101237B61002361
:100CEC00BB610223FB6107F1100319460B4800F0AE
:100CFC00EBFE4FF400433B6101237B610023BB619E
:100D0C000223FB6107F110031946054800F0DCFED5
:100D1C0000BF2037BD4680BD0010024000080140D6
:100D2C00000C0140B0B592B000AF7860B14A7B685E
:100D3C0052F82330DBB21A460421AF4801F048F8D0
:100D4C00AE4A7B6852F82330DBB21A464FF40041AE
:100D5C00AB4801F03DF8AB4A7B6852F82320AA4916
:100D6C007B6851F823309A4267DDA64A7B6852F8BB
:100D7C002330002B61D0A44A7B6852F82330002B1F
:100D8C005BD007F108030022A049184603F008FBCA
:100D9C0007F108031846FFF7D3F903469AB207F197
:100DAC0008014FF0FF339A4802F035FD994B1B6850
:100DBC004FF47A72DA62974B4FF47A72DA60914A96
:100DCC007B6852F823301846FFF714FB04460D4697
:100DDC008D4A7B6852F823301846FFF70BFB02460E
:100DEC000B4620462946FFF799FC02460B468A49DA
:100DFC00C1E90023884BD3E900014FF00002874B77
:100E0C00FFF762FB02460B4610461946FFF76EFDD4
:100E1C000346834A1360834B1B68814A1268DA626B
:100E2C007F4B1B687F4AD36000217A4801F0F2FCAB
:100E3C0000217C4801F0EEFC68E1724A7B6852F8B4
:100E4C00232071497B6851F823309A4267DA6D4A46
:100E5C007B6852F82330002B61D06B4A7B6852F8C8
:100E6C002330002B5BD007F1080301226749184699
:100E7C0003F096FA07F108031846FFF761F90346E9
:100E8C009AB207F108014FF0FF33614802F0C3FC3E
:100E9C00644B1B684FF47A72DA62624B4FF47A72CD
:100EAC00DA60594A7B6852F823301846FFF7A2FAE9
:100EBC0004460D46534A7B6852F823301846FFF718
:100ECC0099FA02460B4620462946FFF727FC0246B4
:100EDC000B465149C1E900234F4BD3E900014FF0B8
:100EEC0000024E4BFFF7F0FA02460B46104619462D
:100EFC00FFF7FCFC03464C4A1360464B1B684A4AFE
:100F0C001268DA62484B1B68424AD36000214148A0
:100F1C0001F080FC0021434801F07CFCF6E0394AEA
:100F2C007B6852F8232038497B6851F823309A4269
:100F3C002FD107F1080302223449184603F030FA86
:100F4C0007F108031846FFF7FBF803469AB207F1BE
:100F5C0008014FF0FF332E4802F05DFC2D4B1B684F
:100F6C004FF47A72DA622B4B4FF47A72DA602D4BB3
:100F7C001B684FF47A72DA622A4B4FF47A72DA6099
:100F8C000021244801F046FC0021264801F042FCD7
:100F9C00BCE01C4A7B6852F82330002B4AD11A4A19
:100FAC007B6852F82330002B44D107F1080303224D
:100FBC001649184603F0F4F907F108031846FFF731
:100FCC00BFF803469AB207F108014FF0FF331048FF
:100FDC0002F021FC154B01221A60154B01221A60FC
:100FEC0000210C4801F006FD00210E4801F002FD25
:100FFC008CE000BF3C0000200008014028000020CD
:10100C00000C01400000002014000020244D0008BA
:10101C005C010020CC000020C001002000408F406B
:10102C00A801002014010020A4010020AC01002024
:10103C00B0010020374A7B6852F82330002B2FD1A7
:10104C00354A7B6852F82330002B29D007F108036E
:10105C0004223249184603F0A3F907F10803184695
:10106C00FFF76EF803469AB207F108014FF0FF3311
:10107C002B4802F0D0FB2B4B01221A602A4B1B6829
:10108C004FF47A72DA62284B4FF47A72DA600021EC
:10109C00264801F0AFFC0021234801F0BBFB35E0F2
:1010AC001C4A7B6852F82330002B2FD01A4A7B68DD
:1010BC0052F82330002B29D107F1080305221749D8
:1010CC00184603F06DF907F108031846FFF738F8D6
:1010DC0003469AB207F108014FF0FF33104802F0B3
:1010EC009AFB134B01221A60104B1B684FF47A7257
:1010FC00DA620E4B4FF47A72DA6000210A4801F082
:10110C0079FC0021094801F085FBFFE700BF483757
:10111C00BD46B0BD0000002014000020244D000886
:10112C005C010020AC01002014010020CC00002048
:10113C00B001002080B592B000AF78607B681B686E
:10114C00434A93422CD1434B1B680133414A1360F1
:10115C00414B1B68414A52F82330013B1A463D4B28
:10116C001B689A421CD23B4B1A6807F108033C4996
:10117C00184603F015F907F108031846FEF7E0FFCF
:10118C0003469AB207F108014FF47A73354802F01E
:10119C0042FB0021344801F02DFC344B01221A6033
:1011AC007B681B68B3F1804F2CD1314B1B6801332A
:1011BC002F4A1360284B1B682E4A52F82330013BF0
:1011CC001A462B4B1B689A421CD2294B1A6807F102
:1011DC0008032949184603F0E3F807F108031846F9
:1011EC00FEF7AEFF03469AB207F108014FF47A738B
:1011FC001C4802F010FB0021204801F0FBFB204BA7
:10120C0001221A60194B1B68012B1DD11C4B1B684A
:10121C00012B19D1104B1B6801330F4A1360134B70
:10122C0000221A60164B00221A600A4B00221A6028
:10123C000F4B00221A60084B1B68042B04D8064B7A
:10124C001B681846FFF76EFD00BF4837BD4680BDD2
:10125C00002C0140B4010020BC0100200000002043
:10126C002C4D00085C010020CC000020AC010020BB
:10127C00B801002014000020384D00081401002093
:10128C00B001002080B400AF72B600BF00BFFDE714
:10129C0080B485B000AF154B9B69144A43F0010331
:1012AC009361124B9B6903F00103BB60BB680F4B4E
:1012BC00DB690E4A43F08053D3610C4BDB6903F0BE
:1012CC0080537B607B680A4B5B68FB60FB6823F098
:1012DC00E063FB60FB6843F00073FB60044AFB684F
:1012EC00536000BF1437BD4680BC704700100240ED
:1012FC000000014080B584B000AF78607B681B684B
:10130C00264A93422CD1264B9B69254A43F4006311
:10131C009361234B9B6903F40063FB60FB68002221
:10132C000021182000F0E7FA182000F000FB002242
:10133C000021192000F0DFFA192000F0F8FA002241
:10134C0000211A2000F0D7FA1A2000F0F0FA00223F
:10135C0000211B2000F0CFFA1B2000F0E8FA18E067
:10136C007B681B68B3F1804F13D10D4BDB690C4AC2
:10137C0043F00103D3610A4BDB6903F00103BB604B
:10138C00BB68002200211C2000F0B5FA1C2000F0E4
:10139C00CEFA00BF1037BD4680BD00BF002C014007
:1013AC000010024080B588B000AF786007F11003E0
:1013BC0000221A605A609A60DA607B681B681F4AC8
:1013CC00934219D11E4B9B691D4A43F00403936150
:1013DC001B4B9B6903F00403FB60FB684FF48073A9
:1013EC003B6102237B610223FB6107F11003194669
:1013FC00144800F069FB1CE07B681B68B3F1804F5C
:10140C0017D10F4B9B690E4A43F0040393610C4BAD
:10141C009B6903F00403BB60BB6801233B6102239F
:10142C007B610223FB6107F110031946054800F0AC
:10143C004BFB00BF2037BD4680BD00BF002C0140D8
:10144C00001002400008014080B588B000AF786001
:10145C0007F1100300221A605A609A60DA607B6808
:10146C001B68204A934239D11F4B9B691E4A43F497
:10147C00804393611C4B9B6903F48043FB60FB68C6
:10148C00194B9B69184A43F004039361164B9B69F3
:10149C0003F00403BB60BB684FF400733B61022391
:1014AC007B610323FB6107F1100319460F4800F021
:1014BC000BFB4FF480633B6100237B610023BB611A
:1014CC0007F110031946094800F0FEFA002200212A
:1014DC00252000F010FA252000F029FA00BF203753
:1014EC00BD4680BD0038014000100240000801409C
:1014FC0080B400AF00BFFDE780B400AF00BFFDE7D4
:10150C0080B400AF00BFFDE780B400AF00BFFDE7C3
:10151C0080B400AF00BFFDE780B400AF00BFBD4694
:10152C0080BC704780B400AF00BFBD4680BC704724
:10153C0080B400AF00BFBD4680BC704780B500AF23
:10154C0000F0E6F800BF80BD80B500AF024801F0A6
:10155C0003FB00BF80BD00BFCC00002080B500AFF6
:10156C00024801F0F9FA00BF80BD00BFCC0000209A
:10157C0080B500AF024801F0EFFA00BF80BD00BF9C
:10158C00CC00002080B500AF024801F0E5FA00BFA6
:10159C0080BD00BFCC00002080B500AF024801F038
:1015AC00DBFA00BF80BD00BF1401002080B500AF86
:1015BC00024802F0BBF900BF80BD00BF5C010020F7
:1015CC0080B586B000AF7860144A154BD31A7B6196
:1015DC007B693B61134B1B68002B02D1114B124AE8
:1015EC001A60104B1A687B6813443A699A4207D206
:1015FC0002F0FEFE03460C221A604FF0FF3309E0A6
:10160C00084B1B68FB60074B1A687B681344054A40
:10161C001360FB6818461837BD4680BD005000208B
:10162C0000040000C80100201803002080B400AFA3
:10163C0000BFBD4680BC7047FFF7F8FF0B480C4954
:10164C000C4A002302E0D458C4500433C4188C4212
:10165C00F9D3094A094C002301E013600432A24279
:10166C00FBD302F0CBFEFFF761F9704700000020BE
:10167C00AC000020B44D0008B0000020180300207E
:10168C00FEE7000080B500AF084B1B68074A43F02B
:10169C0010031360032000F023F90F2000F008F86A
:1016AC00FFF7F6FD0023184680BD00BF0020024066
:1016BC0080B582B000AF7860124B1A68124B1B7861
:1016CC0019464FF47A73B3FBF1F3B2FBF3F31846FC
:1016DC0000F03BF90346002B01D001230EE07B68A0
:1016EC000F2B0AD8002279684FF0FF3000F003F975
:1016FC00064A7B681360002300E001231846083774
:10170C00BD4680BD50000020580000205400002031
:10171C0080B400AF054B1B781A46054B1B6813446D
:10172C00034A136000BFBD4680BC704758000020C0
:10173C00CC01002080B400AF024B1B681846BD469C
:10174C0080BC7047CC01002080B485B000AF7860BD
:10175C007B6803F00703FB600C4BDB68BB60BA686B
:10176C004FF6FF031340BB60FB681A02BB681343C0
:10177C0043F0BF6343F40033BB60044ABB68D360DF
:10178C0000BF1437BD4680BC704700BF00ED00E0C1
:10179C0080B400AF044BDB681B0A03F00703184648
:1017AC00BD4680BC704700BF00ED00E080B483B044
:1017BC0000AF0346FB7197F90730002B0BDBFB796D
:1017CC0003F01F02064997F907305B09012000FA64
:1017DC0002F241F8232000BF0C37BD4680BC704795
:1017EC0000E100E080B483B000AF03463960FB71C8
:1017FC0097F90730002B0ADB3B68DAB20C4997F9F2
:10180C0007301201D2B20B4483F800230AE03B6884
:10181C00DAB20849FB7903F00F03043B1201D2B290
:10182C000B441A7600BF0C37BD4680BC704700BF16
:10183C0000E100E000ED00E080B489B000AFF8609A
:10184C00B9607A60FB6803F00703FB61FB69C3F1C5
:10185C000703042B28BF0423BB61FB690433062B4D
:10186C0002D9FB69033B00E000237B614FF0FF32A0
:10187C00BB6902FA03F3DA43BB681A407B699A40EE
:10188C004FF0FF317B6901FA03F3D9437B680B40BE
:10189C00134318462437BD4680BC704780B582B0D0
:1018AC0000AF78607B68013BB3F1807F01D30123EB
:1018BC000FE00A4A7B68013B53600F214FF0FF3069
:1018CC00FFF790FF054B00229A60044B07221A6029
:1018DC00002318460837BD4680BD00BF10E000E06D
:1018EC0080B582B000AF78607868FFF72DFF00BF3D
:1018FC000837BD4680BD80B586B000AF0346B960E1
:10190C007A60FB7300237B61FFF742FF78617A6892
:10191C00B9687869FFF790FF024697F90F301146C6
:10192C001846FFF75FFF00BF1837BD4680BD80B576
:10193C0082B000AF0346FB7197F907301846FFF7EA
:10194C0035FF00BF0837BD4680BD80B582B000AF03
:10195C0078607868FFF7A2FF034618460837BD4643
:10196C0080BD80B485B000AF78600023FB737B68CA
:10197C0093F82130DBB2022B08D07B6804229A63E7
:10198C007B68002283F82020012320E07B681B6801
:10199C001A687B681B6822F00E021A607B681B6851
:1019AC001A687B681B6822F001021A607B681A6C4B
:1019BC007B68DB6B012101FA02F25A607B68012221
:1019CC0083F821207B68002283F82020FB7B1846BB
:1019DC001437BD4680BC704780B584B000AF7860CA
:1019EC000023FB737B6893F82130DBB2022B05D00C
:1019FC007B6804229A630123FB7351E07B681B68AC
:101A0C001A687B681B6822F00E021A607B681B68E0
:101A1C001A687B681B6822F001021A607B681B68DD
:101A2C00224A934229D07B681B68214A934222D0D8
:101A3C007B681B681F4A93421AD07B681B681E4A3E
:101A4C00934212D07B681B681C4A93420AD07B6875
:101A5C001B681B4A934202D14FF480130EE04FF0E7
:101A6C0080730BE04FF4803308E04FF4805305E0B3
:101A7C004FF4807302E0102300E00123114A5360FD
:101A8C007B68012283F821207B68002283F82020C8
:101A9C007B685B6B002B03D07B685B6B786898472B
:101AAC00FB7B18461037BD4680BD00BF08000240C6
:101ABC001C0002403000024044000240580002402A
:101ACC006C0002400000024080B48BB000AF786024
:101ADC00396000237B6200233B6269E101227B6A4F
:101AEC0002FA03F3FB613B681B68FA691340BB61A4
:101AFC00BA69FB699A4240F058813B685B689A4A24
:101B0C0093425ED0984A934275D8984A934258D0E3
:101B1C00964A93426FD8964A934252D0944A934233
:101B2C0069D8944A93424CD0924A934263D8924AD1
:101B3C00934246D0904A93425DD8122B2AD8122B4E
:101B4C0059D801A252F823F0CF1B0008A91B00089A
:101B5C00BB1B0008FD1B0008031C0008031C00082D
:101B6C00031C0008031C0008031C0008031C0008CD
:101B7C00031C0008031C0008031C0008031C0008BD
:101B8C00031C0008031C0008031C0008B11B000800
:101B9C00C51B0008794A934213D02CE03B68DB68E4
:101BAC003B6229E03B68DB6804333B6224E03B6822
:101BBC00DB6808333B621FE03B68DB680C333B623D
:101BCC001AE03B689B68002B02D104233B6213E0B4
:101BDC003B689B68012B05D108233B627B68FA6943
:101BEC001A6109E008233B627B68FA695A6103E0D9
:101BFC0000233B6200E000BFBB69FF2B01D87B6870
:101C0C0001E07B6804337B61BB69FF2B02D87B6AE4
:101C1C009B0002E07B6A083B9B003B617B691A6876
:101C2C000F213B6901FA03F3DB431A40396A3B6924
:101C3C0001FA03F31A437B691A603B685B6803F093
:101C4C008053002B00F0B1804D4B9B694C4A43F004
:101C5C00010393614A4B9B6903F00103BB60BB68B2
:101C6C00484A7B6A9B08023352F82330FB607B6A3C
:101C7C0003F003039B000F2202FA03F3DB43FA6821
:101C8C001340FB607B68404A934213D07B683F4A09
:101C9C0093420DD07B683E4A934207D07B683D4A05
:101CAC00934201D1032306E0042304E0022302E063
:101CBC00012300E000237A6A02F0030292009340B1
:101CCC00FA681343FB602F497B6A9B080233FA685E
:101CDC0041F823203B685B6803F48013002B06D08B
:101CEC002D4B9A682C49BB6913438B6006E02A4B39
:101CFC009A68BB69DB43284913408B603B685B687F
:101D0C0003F40013002B06D0234BDA682249BB697D
:101D1C001343CB6006E0204BDA68BB69DB431E49FA
:101D2C001340CB603B685B6803F40033002B06D098
:101D3C00194B5A681849BB6913434B6006E0164BA4
:101D4C005A68BB69DB43144913404B603B685B68C2
:101D5C0003F48033002B21D00F4B1A680E49BB695A
:101D6C0013430B6021E000BF000032100000311063
:101D7C0000002210000021100000121000001110B1
:101D8C00001002400000014000080140000C01401E
:101D9C000010014000140140000401400B4B1A6874
:101DAC00BB69DB43094913400B607B6A01337B62DF
:101DBC003B681A687B6A22FA03F3002B7FF48EAE21
:101DCC0000BF00BF2C37BD4680BC704700040140EB
:101DDC0080B483B000AF78600B467B8013467B7079
:101DEC007B78002B03D07A887B681A6103E07B88B0
:101DFC001A047B681A6100BF0C37BD4680BC704763
:101E0C0080B586B000AF78607B68002B01D10123D0
:101E1C0072E27B681B6803F00103002B00F08780E3
:101E2C00924B5B6803F00C03042B0CD08F4B5B685C
:101E3C0003F00C03082B12D18C4B5B6803F480333A
:101E4C00B3F5803F0BD1894B1B6803F40033002B97
:101E5C006CD07B685B68002B68D101234CE27B68FB
:101E6C005B68B3F5803F06D1804B1B687F4A43F417
:101E7C00803313602EE07B685B68002B0CD17B4BAE
:101E8C001B687A4A23F480331360784B1B68774ABB
:101E9C0023F4802313601DE07B685B68B3F5A02FEF
:101EAC000CD1724B1B68714A43F4802313606F4B47
:101EBC001B686E4A43F4803313600BE06B4B1B685A
:101ECC006A4A23F480331360684B1B68674A23F417
:101EDC00802313607B685B68002B13D0FFF72AFC10
:101EEC00386108E0FFF726FC02463B69D31A642BE5
:101EFC0001D9032300E25D4B1B6803F40033002B74
:101F0C00F0D014E0FFF716FC386108E0FFF712FC84
:101F1C0002463B69D31A642B01D90323ECE1534BE2
:101F2C001B6803F40033002BF0D100E000BF7B688A
:101F3C001B6803F00203002B63D04C4B5B6803F06F
:101F4C000C03002B0BD0494B5B6803F00C03082BE4
:101F5C001CD1464B5B6803F48033002B16D1434BEA
:101F6C001B6803F00203002B05D07B681B69012B57
:101F7C0001D00123C0E13D4B1B6823F0F8027B68C4
:101F8C005B69DB00394913430B603AE07B681B69E2
:101F9C00002B20D0364B01221A60FFF7CBFB3861A7
:101FAC0008E0FFF7C7FB02463B69D31A022B01D9A5
:101FBC000323A1E12D4B1B6803F00203002BF0D08F
:101FCC002A4B1B6823F0F8027B685B69DB0027490E
:101FDC0013430B6015E0264B00221A60FFF7AAFB97
:101FEC00386108E0FFF7A6FB02463B69D31A022BC7
:101FFC0001D9032380E11D4B1B6803F00203002B66
:10200C00F0D17B681B6803F00803002B3AD07B6887
:10201C009B69002B19D0174B01221A60FFF78AFB22
:10202C00386108E0FFF786FB02463B69D31A022BA6
:10203C0001D9032360E10D4B5B6A03F00203002B13
:10204C00F0D0012000F0CEFA1CE00A4B00221A60FE
:10205C00FFF770FB38610FE0FFF76CFB02463B6942
:10206C00D31A022B08D9032346E100BF001002400B
:10207C000000424280044242924B5B6A03F002032E
:10208C00002BE9D17B681B6803F00403002B00F0E4
:10209C00A6800023FB758B4BDB6903F08053002B70
:1020AC000DD1884BDB69874A43F08053D361854B54
:1020BC00DB6903F08053BB60BB680123FB75824B6B
:1020CC001B6803F48073002B18D17F4B1B687E4A6E
:1020DC0043F480731360FFF72DFB386108E0FFF7C2
:1020EC0029FB02463B69D31A642B01D9032303E174
:1020FC00754B1B6803F48073002BF0D07B68DB6896
:10210C00012B06D16F4B1B6A6E4A43F0010313621D
:10211C002DE07B68DB68002B0CD16A4B1B6A694A8B
:10212C0023F001031362674B1B6A664A23F0040316
:10213C0013621CE07B68DB68052B0CD1614B1B6ABE
:10214C00604A43F0040313625E4B1B6A5D4A43F022
:10215C00010313620BE05B4B1B6A5A4A23F0010329
:10216C001362584B1B6A574A23F0040313627B68B3
:10217C00DB68002B15D0FFF7DDFA38610AE0FFF7BA
:10218C00D9FA02463B69D31A41F28832934201D9FB
:10219C000323B1E04B4B1B6A03F00203002BEED080
:1021AC0014E0FFF7C7FA38610AE0FFF7C3FA0246FA
:1021BC003B69D31A41F28832934201D903239BE045
:1021CC00404B1B6A03F00203002BEED1FB7D012B6D
:1021DC0005D13C4BDB693B4A23F08053D3617B68D0
:1021EC00DB69002B00F08780364B5B6803F00C0337
:1021FC00082B61D07B68DB69022B46D1334B002264
:10220C001A60FFF797FA386108E0FFF793FA024675
:10221C003B69D31A022B01D903236DE0294B1B68B0
:10222C0003F00073002BF0D17B681B6AB3F5803F81
:10223C0008D1244B5B6823F400327B689B682149EE
:10224C0013434B601F4B5B6823F474127B68196A51
:10225C007B685B6A0B431B4913434B601B4B01228E
:10226C001A60FFF767FA386108E0FFF763FA024675
:10227C003B69D31A022B01D903233DE0114B1B6898
:10228C0003F00073002BF0D035E0104B00221A60E5
:10229C00FFF750FA386108E0FFF74CFA02463B6949
:1022AC00D31A022B01D9032326E0064B1B6803F03B
:1022BC000073002BF0D11EE07B68DB69012B07D18A
:1022CC00012319E0001002400070004060004242FF
:1022DC000B4B5B68FB60FB6803F480327B681B6A0A
:1022EC009A4206D1FB6803F470127B685B6A9A42CF
:1022FC0001D0012300E0002318461837BD4680BDED
:10230C000010024080B584B000AF786039607B6803
:10231C00002B01D10123D0E06A4B1B6803F00703AB
:10232C003A689A4210D9674B1B6823F0070265493B
:10233C003B6813430B60634B1B6803F007033A685D
:10234C009A4201D00123B8E07B681B6803F00203BA
:10235C00002B20D07B681B6803F00403002B05D0F6
:10236C00594B5B68584A43F4E06353607B681B68C5
:10237C0003F00803002B05D0534B5B68524A43F41F
:10238C0060535360504B5B6823F0F0027B689B6892
:10239C004D4913434B607B681B6803F00103002B12
:1023AC0040D07B685B68012B07D1474B1B6803F45B
:1023BC000033002B15D101237FE07B685B68022B77
:1023CC0007D1414B1B6803F00073002B09D101238B
:1023DC0073E03D4B1B6803F00203002B01D101237A
:1023EC006BE0394B5B6823F003027B685B68364912
:1023FC0013434B60FFF79EF9F8600AE0FFF79AF978
:10240C000246FB68D31A41F28832934201D9032366
:10241C0053E02D4B5B6803F00C027B685B689B0000
:10242C009A42EBD1274B1B6803F007033A689A4298
:10243C0010D2244B1B6823F0070222493B6813433C
:10244C000B60204B1B6803F007033A689A4201D0DB
:10245C00012332E07B681B6803F00403002B08D0D7
:10246C00194B5B6823F4E0627B68DB681649134305
:10247C004B607B681B6803F00803002B09D0124BE0
:10248C005B6823F460527B681B69DB000E491343C5
:10249C004B6000F021F802460B4B5B681B0903F004
:1024AC000F030A49CB5C22FA03F3094A1360094B68
:1024BC001B681846FFF7FCF8002318461037BD467A
:1024CC0080BD00BF0020024000100240444D0008B7
:1024DC00500000205400002080B487B000AF0023CF
:1024EC00FB600023BB6000237B6100237B60002327
:1024FC003B611E4B5B68FB60FB6803F00C03042B19
:10250C0002D0082B03D027E0194B3B6127E0FB6876
:10251C009B0C03F00F03174AD35C7B60FB6803F43E
:10252C008033002B10D0114B5B685B0C03F0010364
:10253C00114AD35CBB607B680D4A03FB02F2BB689B
:10254C00B2FBF3F37B6104E07B680C4A02FB03F300
:10255C007B617B693B6102E0054B3B6100BF3B69E2
:10256C0018461C37BD4680BC704700BF00100240A7
:10257C0000127A005C4D00086C4D000800093D000B
:10258C0080B400AF024B1B681846BD4680BC704738
:10259C005000002080B500AFFFF7F2FF0246054B5C
:1025AC005B681B0A03F007030349CB5C22FA03F3B5
:1025BC00184680BD00100240544D000880B500AF95
:1025CC00FFF7DEFF0246054B5B68DB0A03F00703EF
:1025DC000349CB5C22FA03F3184680BD001002407D
:1025EC00544D000880B485B000AF78600A4B1B686E
:1025FC000A4AA2FB03235B0A7A6802FB03F3FB6023
:10260C0000BFFB685A1EFA60002BF9D100BF00BF57
:10261C001437BD4680BC704750000020D34D62106B
:10262C0080B582B000AF78607B68002B01D10123AC
:10263C0041E07B6893F83D30DBB2002B06D17B6820
:10264C00002283F83C207868FEF754FE7B68022257
:10265C0083F83D207B681A687B6804331946104662
:10266C0000F018FD7B68012283F846207B6801226C
:10267C0083F83E207B68012283F83F207B6801228F
:10268C0083F840207B68012283F841207B6801227B
:10269C0083F842207B68012283F843207B68012267
:1026AC0083F844207B68012283F845207B68012253
:1026BC0083F83D20002318460837BD4680BD000036
:1026CC0080B485B000AF78607B6893F83D30DBB2A6
:1026DC00012B01D001233AE07B68022283F83D20D4
:1026EC007B681B68DA687B681B6842F00102DA6061
:1026FC007B681B68184A93420ED07B681B68B3F149
:10270C00804F09D07B681B68144A934204D07B68C5
:10271C001B68134A934211D17B681B689B6803F0BA
:10272C000703FB60FB68062B10D07B681B681A68DC
:10273C007B681B6842F001021A6007E07B681B682B
:10274C001A687B681B6842F001021A600023184665
:10275C001437BD4680BC7047002C0140000400407B
:10276C000008004080B582B000AF78607B68002B19
:10277C0001D1012341E07B6893F83D30DBB2002BA3
:10278C0006D17B68002283F83C20786800F039F889
:10279C007B68022283F83D207B681A687B680433CF
:1027AC001946104600F076FC7B68012283F846201F
:1027BC007B68012283F83E207B68012283F83F204E
:1027CC007B68012283F840207B68012283F841203A
:1027DC007B68012283F842207B68012283F8432026
:1027EC007B68012283F844207B68012283F8452012
:1027FC007B68012283F83D20002318460837BD462C
:10280C0080BD80B483B000AF786000BF0C37BD468C
:10281C0080BC704780B584B000AF7860396000230D
:10282C00FB733B68002B09D17B6893F83E30DBB21D
:10283C00012B14BF01230023DBB222E03B68042BE5
:10284C0009D17B6893F83F30DBB2012B14BF012315
:10285C000023DBB215E03B68082B09D17B6893F8A9
:10286C004030DBB2012B14BF01230023DBB208E0A4
:10287C007B6893F84130DBB2012B14BF012300239A
:10288C00DBB2002B01D00123A9E03B68002B04D163
:10289C007B68022283F83E2013E03B68042B04D1B2
:1028AC007B68022283F83F200BE03B68082B04D1A5
:1028BC007B68022283F8402003E07B68022283F8C5
:1028CC0041203B680C2B41D801A252F823F000BFE9
:1028DC00112900085929000859290008592900080C
:1028EC0023290008592900085929000859290008EA
:1028FC0035290008592900085929000859290008C8
:10290C00472900087B681B68DA687B681B6842F003
:10291C000202DA601DE07B681B68DA687B681B6862
:10292C0042F00402DA6014E07B681B68DA687B68AA
:10293C001B6842F00802DA600BE07B681B68DA68FF
:10294C007B681B6842F01002DA6002E00123FB7323
:10295C0000BFFB7B002B41D17B681B6801223968CF
:10296C00184600F023FE7B681B681F4A934207D170
:10297C007B681B685A6C7B681B6842F400425A6483
:10298C007B681B68184A93420ED07B681B68B3F1B6
:10299C00804F09D07B681B68144A934204D07B6833
:1029AC001B68134A934211D17B681B689B6803F028
:1029BC000703BB60BB68062B10D07B681B681A68CA
:1029CC007B681B6842F001021A6007E07B681B6899
:1029DC001A687B681B6842F001021A60FB7B184680
:1029EC001037BD4680BD00BF002C014000040040E4
:1029FC000008004080B584B000AF786039600023D7
:102A0C00FB733B680C2B41D801A252F823F000BF9A
:102A1C00512A0008992A0008992A0008992A0008C6
:102A2C00632A0008992A0008992A0008992A0008A4
:102A3C00752A0008992A0008992A0008992A000882
:102A4C00872A00087B681B68DA687B681B6822F0A1
:102A5C000202DA601DE07B681B68DA687B681B6821
:102A6C0022F00402DA6014E07B681B68DA687B6889
:102A7C001B6822F00802DA600BE07B681B68DA68DE
:102A8C007B681B6822F01002DA6002E00123FB7302
:102A9C0000BFFB7B002B57D17B681B680022396879
:102AAC00184600F083FD7B681B682A4A934217D1B5
:102ABC007B681B681A6A41F211131340002B0FD16B
:102ACC007B681B681A6A40F244431340002B07D101
:102ADC007B681B685A6C7B681B6822F400425A6442
:102AEC007B681B681A6A41F211131340002B0FD13B
:102AFC007B681B681A6A40F244431340002B07D1D1
:102B0C007B681B681A687B681B6822F001021A60DC
:102B1C003B68002B04D17B68012283F83E2013E034
:102B2C003B68042B04D17B68012283F83F200BE027
:102B3C003B68082B04D17B68012283F8402003E01A
:102B4C007B68012283F84120FB7B18461037BD4679
:102B5C0080BD00BF002C014080B584B000AF786010
:102B6C007B681B68DB68FB607B681B681B69BB6050
:102B7C00BB6803F00203002B20D0FB6803F00203B8
:102B8C00002B1BD07B681B686FF002021A617B68FC
:102B9C0001221A777B681B689B6903F00303002BE7
:102BAC0003D0786800F063FA05E0786800F056FA14
:102BBC007868FEF7BFFA7B6800221A77BB6803F0CF
:102BCC000403002B20D0FB6803F00403002B1BD064
:102BDC007B681B686FF004021A617B6802221A770B
:102BEC007B681B689B6903F44073002B03D07868E7
:102BFC0000F03DFA05E0786800F030FA7868FEF7EE
:102C0C0099FA7B6800221A77BB6803F00803002B43
:102C1C0020D0FB6803F00803002B1BD07B681B68DB
:102C2C006FF008021A617B6804221A777B681B68B4
:102C3C00DB6903F00303002B03D0786800F017FA6C
:102C4C0005E0786800F00AFA7868FEF773FA7B689A
:102C5C0000221A77BB6803F01003002B20D0FB680E
:102C6C0003F01003002B1BD07B681B686FF0100265
:102C7C001A617B6808221A777B681B68DB6903F48E
:102C8C004073002B03D0786800F0F1F905E0786808
:102C9C0000F0E4F97868FEF74DFA7B6800221A77A9
:102CAC00BB6803F00103002B0CD0FB6803F001039D
:102CBC00002B07D07B681B686FF001021A617868E3
:102CCC0000F0C3F9BB6803F08003002B0CD0FB6849
:102CDC0003F08003002B07D07B681B686FF0800229
:102CEC001A61786800F03EFDBB6803F04003002BCE
:102CFC000CD0FB6803F04003002B07D07B681B68EB
:102D0C006FF040021A61786800F0BAF9BB6803F002
:102D1C002003002B0CD0FB6803F02003002B07D002
:102D2C007B681B686FF020021A61786800F011FD57
:102D3C0000BF1037BD4680BD80B586B000AFF860CF
:102D4C00B9607A600023FB75FB6893F83C30012B6B
:102D5C0001D10223AEE0FB68012283F83C207B68A2
:102D6C000C2B00F29F8001A252F823F0AD2D00082D
:102D7C00B12E0008B12E0008B12E0008ED2D000870
:102D8C00B12E0008B12E0008B12E00082F2E00081D
:102D9C00B12E0008B12E0008B12E00086F2E0008CD
:102DAC00FB681B68B968184600F0E2F9FB681B6801
:102DBC009A69FB681B6842F008029A61FB681B6801
:102DCC009A69FB681B6822F004029A61FB681B6815
:102DDC009969BB681A69FB681B680A439A6164E0CD
:102DEC00FB681B68B968184600F028FAFB681B687A
:102DFC009A69FB681B6842F400629A61FB681B6865
:102E0C009A69FB681B6822F480629A61FB681B68F4
:102E1C009969BB681B691A02FB681B680A439A61B3
:102E2C0043E0FB681B68B968184600F071FAFB6850
:102E3C001B68DA69FB681B6842F00802DA61FB6800
:102E4C001B68DA69FB681B6822F00402DA61FB6814
:102E5C001B68D969BB681A69FB681B680A43DA618D
:102E6C0023E0FB681B68B968184600F0BBFAFB68E6
:102E7C001B68DA69FB681B6842F40062DA61FB6864
:102E8C001B68DA69FB681B6822F48062DA61FB68F4
:102E9C001B68D969BB681B691A02FB681B680A436B
:102EAC00DA6102E00123FB7500BFFB68002283F8A6
:102EBC003C20FB7D18461837BD4680BD80B584B0DC
:102ECC0000AF786039600023FB737B6893F83C306B
:102EDC00012B01D10223B4E07B68012283F83C2052
:102EEC007B68022283F83D207B681B689B68BB6073
:102EFC00BB6823F07703BB60BB6823F47F43BB60E4
:102F0C007B681B68BA689A603B681B68B3F5005F06
:102F1C003ED0B3F5005F00F28780B3F5805F00F020
:102F2C008680B3F5805F7FD8702B1AD0702B7BD83E
:102F3C00602B50D0602B77D8502B3CD0502B73D8B3
:102F4C00402B58D0402B6FD8302B64D0302B6BD803
:102F5C00202B60D0202B67D8002B5CD0102B5AD0A4
:102F6C0062E07B6818683B6899683B685A683B6804
:102F7C00DB6800F0FCFA7B681B689B68BB60BB6875
:102F8C0043F07703BB607B681B68BA689A604FE0BC
:102F9C007B6818683B6899683B685A683B68DB68D3
:102FAC0000F0E5FA7B681B689A687B681B6842F442
:102FBC0080429A603CE07B6818683B6859683B68C3
:102FCC00DB681A4600F05CFA7B681B6850211846D7
:102FDC0000F0B3FA2CE07B6818683B6859683B68D2
:102FEC00DB681A4600F07AFA7B681B686021184689
:102FFC0000F0A3FA1CE07B6818683B6859683B68D2
:10300C00DB681A4600F03CFA7B681B6840211846C6
:10301C0000F093FA0CE07B681A683B681B68194651
:10302C00104600F08AFA03E00123FB7300E000BFB6
:10303C007B68012283F83D207B68002283F83C20CA
:10304C00FB7B18461037BD4680BD80B483B000AF03
:10305C00786000BF0C37BD4680BC704780B483B02D
:10306C0000AF786000BF0C37BD4680BC704780B4A1
:10307C0083B000AF786000BF0C37BD4680BC704792
:10308C0080B483B000AF786000BF0C37BD4680BC05
:10309C007047000080B485B000AF786039607B6801
:1030AC001B68FB607B682F4A93420BD07B68B3F1A3
:1030BC00804F07D07B682C4A934203D07B682B4A05
:1030CC00934208D1FB6823F07003FB603B685B689C
:1030DC00FA681343FB607B68224A93420BD07B68EF
:1030EC00B3F1804F07D07B681F4A934203D07B68B3
:1030FC001E4A934208D1FB6823F44073FB603B6883
:10310C00DB68FA681343FB60FB6823F080023B68C2
:10311C005B691343FB607B68FA681A603B689A68CA
:10312C007B68DA623B681A687B689A627B680D4A36
:10313C00934203D13B681A697B681A637B6801224E
:10314C005A617B681B6903F00103002B05D07B6877
:10315C001B6923F001027B681A6100BF1437BD465E
:10316C0080BC7047002C0140000400400008004067
:10317C0080B487B000AF786039607B681B6A7B6174
:10318C007B681B6A23F001027B681A627B685B68B0
:10319C003B617B689B69FB60FB6823F07003FB6001
:1031AC00FB6823F00303FB603B681B68FA6813435E
:1031BC00FB607B6923F002037B613B689B687A6947
:1031CC0013437B617B681C4A93420CD17B6923F0CF
:1031DC0008037B613B68DB687A6913437B617B691D
:1031EC0023F004037B617B68134A934211D13B6942
:1031FC0023F480733B613B6923F400733B613B68B0
:10320C005B693A6913433B613B689B693A691343B9
:10321C003B617B683A695A607B68FA689A613B68E3
:10322C005A687B685A637B687A691A6200BF1C37DC
:10323C00BD4680BC704700BF002C014080B487B0F5
:10324C0000AF786039607B681B6A7B617B681B6AA6
:10325C0023F010027B681A627B685B683B617B68B9
:10326C009B69FB60FB6823F4E043FB60FB6823F481
:10327C004073FB603B681B681B02FA681343FB60DE
:10328C007B6923F020037B613B689B681B017A6997
:10329C0013437B617B681D4A93420DD17B6923F0FC
:1032AC0080037B613B68DB681B017A6913437B619C
:1032BC007B6923F040037B617B68144A934213D1F2
:1032CC003B6923F480633B613B6923F400633B61FE
:1032DC003B685B699B003A6913433B613B689B69A4
:1032EC009B003A6913433B617B683A695A607B687F
:1032FC00FA689A613B685A687B689A637B687A695A
:10330C001A6200BF1C37BD4680BC7047002C0140C0
:10331C0080B487B000AF786039607B681B6A7B61D2
:10332C007B681B6A23F480727B681A627B685B681B
:10333C003B617B68DB69FB60FB6823F07003FB601F
:10334C00FB6823F00303FB603B681B68FA681343BC
:10335C00FB607B6923F400737B613B689B681B02F9
:10336C007A6913437B617B681D4A93420DD17B695B
:10337C0023F400637B613B68DB681B027A691343AF
:10338C007B617B6923F480637B617B68144A934285
:10339C0013D13B6923F480533B613B6923F4005305
:1033AC003B613B685B691B013A6913433B613B68BA
:1033BC009B691B013A6913433B617B683A695A600C
:1033CC007B68FA68DA613B685A687B68DA637B6809
:1033DC007A691A6200BF1C37BD4680BC704700BFBB
:1033EC00002C014080B487B000AF786039607B68F6
:1033FC001B6A3B617B681B6A23F480527B681A62F0
:10340C007B685B687B617B68DB69FB60FB6823F432
:10341C00E043FB60FB6823F44073FB603B681B6874
:10342C001B02FA681343FB603B6923F400533B61B6
:10343C003B689B681B033A6913433B617B680F4AEB
:10344C00934209D17B6923F480437B613B685B69C0
:10345C009B017A6913437B617B687A695A607B684C
:10346C00FA68DA613B685A687B681A647B683A6967
:10347C001A6200BF1C37BD4680BC7047002C01404F
:10348C0080B487B000AFF860B9607A60FB681B6AE3
:10349C007B61FB681B6A23F00102FB681A62FB6804
:1034AC009B693B613B6923F0F0033B617B681B012B
:1034BC003A6913433B617B6923F00A037B617A69A8
:1034CC00BB6813437B61FB683A699A61FB687A6954
:1034DC001A6200BF1C37BD4680BC704780B487B0F1
:1034EC0000AFF860B9607A60FB681B6A7B61FB68AF
:1034FC001B6A23F01002FB681A62FB689B693B6134
:10350C003B6923F470433B617B681B033A691343AB
:10351C003B617B6923F0A0037B61BB681B017A696B
:10352C0013437B61FB683A699A61FB687A691A629A
:10353C0000BF1C37BD4680BC704780B485B000AF5F
:10354C00786039607B689B68FB60FB6823F07003D4
:10355C00FB603A68FB68134343F00703FB607B682E
:10356C00FA689A6000BF1437BD4680BC704780B4BF
:10357C0087B000AFF860B9607A603B60FB689B680D
:10358C007B617B6923F47F437B613B681A027B6818
:10359C001A43BB6813437A6913437B61FB687A69EE
:1035AC009A6000BF1C37BD4680BC704780B487B0A2
:1035BC0000AFF860B9607A60BB6803F01F030122AA
:1035CC0002FA03F37B61FB681A6A7B69DB431A40DE
:1035DC00FB681A62FB681A6ABB6803F01F03796800
:1035EC0001FA03F31A43FB681A6200BF1C37BD468D
:1035FC0080BC704780B485B000AF786039607B6860
:10360C0093F83C30012B01D1022346E07B68012268
:10361C0083F83C207B68022283F83D207B681B6882
:10362C005B68FB607B681B689B68BB60FB6823F076
:10363C007003FB603B681B68FA681343FB607B6894
:10364C001B68FA685A607B681B68164A93420ED056
:10365C007B681B68B3F1804F09D07B681B68124AEA
:10366C00934204D07B681B68104A93420CD1BB6810
:10367C0023F08003BB603B685B68BA681343BB6094
:10368C007B681B68BA689A607B68012283F83D20CE
:10369C007B68002283F83C20002318461437BD4673
:1036AC0080BC7047002C0140000400400008004022
:1036BC0080B485B000AF786039600023FB607B6814
:1036CC0093F83C30012B01D102233DE07B680122B1
:1036DC0083F83C20FB6823F0FF023B68DB68134354
:1036EC00FB60FB6823F440723B689B681343FB60F0
:1036FC00FB6823F480623B685B681343FB60FB68E8
:10370C0023F400623B681B681343FB60FB6823F4E3
:10371C0080523B681B691343FB60FB6823F4005227
:10372C003B685B691343FB60FB6823F480423B6896
:10373C00DB691343FB607B681B68FA685A647B681F
:10374C00002283F83C20002318461437BD4680BC69
:10375C00704780B483B000AF786000BF0C37BD46B3
:10376C0080BC704780B483B000AF786000BF0C376A
:10377C00BD4680BC704780B582B000AF78607B6876
:10378C00002B01D1012342E07B6893F84130DBB27E
:10379C00002B06D17B68002283F840207868FDF767
:1037AC0053FE7B68242283F841207B681B68DA680F
:1037BC007B681B6822F40052DA60786800F062FDC6
:1037CC007B681B681A697B681B6822F490421A613B
:1037DC007B681B685A697B681B6822F02A025A6155
:1037EC007B681B68DA687B681B6842F40052DA60FD
:1037FC007B6800225A647B68202283F841207B6816
:10380C00202283F842207B6800225A63002318464A
:10381C000837BD4680BD80B58AB002AFF860B9608C
:10382C003B601346FB8000237B61FB6893F84130BF
:10383C00DBB2202B75D1BB68002B02D0FB88002B90
:10384C0001D101236EE0FB6800225A64FB6821223F
:10385C0083F84120FDF76EFF7861FB68FA889A8443
:10386C00FB68FA88DA84FB689B68B3F5805F08D143
:10387C00FB681B69002B04D10023FB61BB68BB6197
:10388C0003E0BB68FB610023BB612EE03B68009347
:10389C007B6900228021F86800F000FB0346002BB6
:1038AC0005D0FB68202283F8412003233AE0FB6912
:1038BC00002B0BD1BB691B881A46FB681B68C2F333
:1038CC0008025A60BB690233BB6107E0FB691A78D6
:1038DC00FB681B685A60FB690133FB61FB68DB8C7E
:1038EC009BB2013B9AB2FB68DA84FB68DB8C9BB21F
:1038FC00002BCBD13B6800937B6900224021F868F8
:10390C0000F0CCFA0346002B05D0FB68202283F88C
:10391C004120032306E0FB68202283F8412000238A
:10392C0000E0022318462037BD4680BD80B5BAB0F2
:10393C0000AF78607B681B681B68C7F8E4307B6855
:10394C001B68DB68C7F8E0307B681B685B69C7F8ED
:10395C00DC300023C7F8D8300023C7F8D430D7F8B0
:10396C00E43003F00F03C7F8D830D7F8D830002B69
:10397C000FD1D7F8E43003F02003002B09D0D7F88F
:10398C00E03003F02003002B03D0786800F0BCFB80
:10399C005BE2D7F8D830002B00F0DE80D7F8DC30B3
:1039AC0003F00103002B06D1D7F8E03003F4907339
:1039BC00002B00F0D180D7F8E43003F00103002B8A
:1039CC000BD0D7F8E03003F48073002B05D07B6864
:1039DC005B6C43F001027B685A64D7F8E43003F067
:1039EC000403002B0BD0D7F8DC3003F00103002BC1
:1039FC0005D07B685B6C43F002027B685A64D7F895
:103A0C00E43003F00203002B0BD0D7F8DC3003F0CA
:103A1C000103002B05D07B685B6C43F004027B68D0
:103A2C005A64D7F8E43003F00803002B11D0D7F810
:103A3C00E03003F02003002B05D1D7F8DC3003F085
:103A4C000103002B05D07B685B6C43F008027B689C
:103A5C005A647B685B6C002B00F0F281D7F8E43081
:103A6C0003F02003002B08D0D7F8E03003F020033C
:103A7C00002B02D0786800F047FB7B681B685B6901
:103A8C0003F04003002B14BF01230023DBB2C7F863
:103A9C00D4307B685B6C03F00803002B03D1D7F8A0
:103AAC00D430002B4FD0786800F051FA7B681B683B
:103ABC005B6903F04003002B41D07B681B68143317
:103ACC00C7F89C30D7F89C3053E8003FC7F89830C3
:103ADC00D7F8983023F04003C7F8D0307B681B68C8
:103AEC001433D7F8D020C7F8A820C7F8A430D7F8DB
:103AFC00A410D7F8A82041E80023C7F8A030D7F8C5
:103B0C00A030002BD9D17B68DB6B002B13D07B68EA
:103B1C00DB6B7E4A5A637B68DB6B1846FDF75CFFF8
:103B2C000346002B16D07B68DB6B5B6B7A68D26B21
:103B3C00104698470EE0786800F09CF90AE0786827
:103B4C0000F098F906E0786800F094F97B680022A0
:103B5C005A6475E100BF73E17B681B6B012B40F06D
:103B6C004F81D7F8E43003F01003002B00F04881AC
:103B7C00D7F8E03003F01003002B00F04181002354
:103B8C00BB607B681B681B68BB607B681B685B68E1
:103B9C00BB60BB687B681B685B6903F04003002B50
:103BAC0000F0B6807B68DB6B1B685B68A7F8BE30E7
:103BBC00B7F8BE30002B00F045817B689B8DB7F8C1
:103BCC00BE209A4280F03E817B68B7F8BE20DA8531
:103BDC007B68DB6B9B69202B00F088807B681B6803
:103BEC000C33C7F88830D7F8883053E8003FC7F853
:103BFC008430D7F8843023F48073C7F8B8307B68EE
:103C0C001B680C33D7F8B820C7F89420C7F890304D
:103C1C00D7F89010D7F8942041E80023C7F88C30DF
:103C2C00D7F88C30002BD9D17B681B6814337B6799
:103C3C007B6F53E8003F3B673B6F23F00103C7F8F2
:103C4C00B4307B681B681433D7F8B420C7F88020D5
:103C5C00FB67F96FD7F8802041E80023BB67BB6F87
:103C6C00002BE1D17B681B6814333B663B6E53E839
:103C7C00003FFB65FB6D23F04003C7F8B0307B6859
:103C8C001B681433D7F8B020FA66BB66B96EFA6EAF
:103C9C0041E800237B667B6E002BE3D17B682022FE
:103CAC0083F842207B6800221A637B681B680C3304
:103CBC00FB64FB6C53E8003FBB64BB6C23F010034C
:103CCC00C7F8AC307B681B680C33D7F8AC20BA65EE
:103CDC007B65796DBA6D41E800233B653B6D002B2C
:103CEC00E3D17B68DB6B1846FDF73BFE7B68022259
:103CFC005A637B689A8D7B68DB8D9BB2D31A9BB21F
:103D0C001946786800F0BFF89CE000BF1F4000081F
:103D1C007B689A8D7B68DB8D9BB2D31AA7F8CE306B
:103D2C007B68DB8D9BB2002B00F08E80B7F8CE3019
:103D3C00002B00F089807B681B680C33BB63BB6B6A
:103D4C0053E8003F7B637B6B23F49073C7F8C83058
:103D5C007B681B680C33D7F8C8207A643B64396CD9
:103D6C007A6C41E80023FB63FB6B002BE3D17B688F
:103D7C001B6814337B627B6A53E8003F3B623B6AEF
:103D8C0023F00103C7F8C4307B681B681433D7F8E1
:103D9C00C4203A63FB62F96A3A6B41E80023BB62C8
:103DAC00BB6A002BE3D17B68202283F842207B681E
:103DBC0000221A637B681B680C333B613B6953E838
:103DCC00003FFB60FB6823F01003C7F8C0307B6832
:103DDC001B680C33D7F8C020FA61BB61B969FA696A
:103DEC0041E800237B617B69002BE3D17B680222D5
:103DFC005A63B7F8CE301946786800F044F823E0DF
:103E0C00D7F8E43003F08003002B09D0D7F8E0306A
:103E1C0003F08003002B03D0786800F00EF914E057
:103E2C00D7F8E43003F04003002B0ED0D7F8E03085
:103E3C0003F04003002B08D0786800F04DF904E043
:103E4C0000BF02E000BF00E000BFE837BD4680BD08
:103E5C0080B483B000AF786000BF0C37BD4680BC27
:103E6C00704780B483B000AF786000BF0C37BD469C
:103E7C0080BC704780B483B000AF786000BF0C3753
:103E8C00BD4680BC704780B483B000AF78600B46F1
:103E9C007B8000BF0C37BD4680BC704780B586B0B8
:103EAC0000AFF860B9603B601346FB713BE03B6AC6
:103EBC00B3F1FF3F37D0FDF73DFC02463B68D31A08
:103ECC003A6A9A4202D33B6A002B01D103233AE0AF
:103EDC00FB681B68DB6803F00403002B23D0BB6872
:103EEC00802B20D0BB68402B1DD0FB681B681B6847
:103EFC0003F00803082B16D100237B61FB681B68B9
:103F0C001B687B61FB681B685B687B617B69F8687D
:103F1C0000F01DF8FB6808225A64FB68002283F845
:103F2C00402001230FE0FB681B681A68BB68134034
:103F3C00BA689A420CBF01230023DBB21A46FB7904
:103F4C009A42B4D0002318461837BD4680BD80B4C1
:103F5C0095B000AF78607B681B680C337B637B6B20
:103F6C0053E8003F3B633B6B23F49073FB647B682B
:103F7C001B680C33FA6C3A64FB63F96B3A6C41E8DE
:103F8C000023BB63BB6B002BE5D17B681B68143330
:103F9C003B623B6A53E8003FFB61FB6923F0010382
:103FAC00BB647B681B681433BA6CFA62BB62B96A77
:103FBC00FA6A41E800237B627B6A002BE5D17B68BF
:103FCC001B6B012B19D17B681B680C33FB60FB68E6
:103FDC0053E8003FBB60BB6823F010037B647B6835
:103FEC001B680C337A6CBA617B617969BA6941E8F8
:103FFC0000233B613B69002BE5D17B68202283F8D1
:10400C0042207B6800221A6300BF5437BD4680BC37
:10401C00704780B584B000AF78607B685B6AFB60EA
:10402C00FB680022DA85FB680022DA84F868FFF767
:10403C0021FF00BF1037BD4680BD80B485B000AFF6
:10404C0078607B6893F84130DBB2212B3ED17B68E2
:10405C009B68B3F5805F14D17B681B69002B10D172
:10406C007B681B6AFB60FB681B881A467B681B68B5
:10407C00C2F308025A607B681B6A9A1C7B681A623E
:10408C0008E07B681B6A591C7A6811621A787B6895
:10409C001B685A607B68DB8C9BB2013B9BB27A68D5
:1040AC001946D184002B0FD17B681B68DA687B68BA
:1040BC001B6822F08002DA607B681B68DA687B6818
:1040CC001B6842F04002DA60002300E0022318462D
:1040DC001437BD4680BC704780B582B000AF7860A5
:1040EC007B681B68DA687B681B6822F04002DA6028
:1040FC007B68202283F841207868FFF7A9FE002313
:10410C0018460837BD4680BD80B58CB000AF7860CE
:10411C007B6893F84230DBB2222B40F0AE807B6898
:10412C009B68B3F5805F17D17B681B69002B13D19B
:10413C000023FB627B689B6ABB627B681B685B68C5
:10414C009BB2C3F308039AB2BB6A1A807B689B6A62
:10415C009A1C7B689A6226E07B689B6AFB62002350
:10416C00BB627B689B68B3F5805F07D07B689B68FC
:10417C00002B0AD17B681B69002B06D17B681B685E
:10418C005B68DAB2FB6A1A7008E07B681B685B68D4
:10419C00DBB203F07F03DAB2FB6A1A707B689B6AAE
:1041AC005A1C7B689A627B68DB8D9BB2013B9BB28D
:1041BC007A681946D185002B5DD17B681B68DA685B
:1041CC007B681B6822F02002DA607B681B68DA6867
:1041DC007B681B6822F48072DA607B681B685A6902
:1041EC007B681B6822F001025A617B68202283F8ED
:1041FC0042207B6800225A637B681B6B012B35D1F4
:10420C007B6800221A637B681B680C337B617B69BB
:10421C0053E8003F3B613B6923F010037B627B68F2
:10422C001B680C337A6A3A62FB61F9693A6A41E8B5
:10423C000023BB61BB69002BE5D17B681B681B6845
:10424C0003F01003102B0AD10023FB607B681B6862
:10425C001B68FB607B681B685B68FB60FB687B68AA
:10426C009B8D19467868FFF70EFE02E07868FFF721
:10427C00F8FD002302E0002300E00223184630374B
:10428C00BD4680BD80B584B000AF78607B681B688C
:10429C001B6923F440517B68DA687B681B680A430E
:1042AC001A617B689A687B681B691A437B685B6937
:1042BC001343BB607B681B68DB6823F4B05323F0AB
:1042CC000C037A681268B9680B43D3607B681B686F
:1042DC005B6923F440717B689A697B681B680A43AD
:1042EC005A617B681B682C4A934203D1FEF766F92E
:1042FC00F86002E0FEF74EF9F860FA6813469B008E
:10430C0013449A001A447B685B689B00B2FBF3F37E
:10431C00224AA2FB03235B091901FA6813469B008E
:10432C0013449A001A447B685B689B00B2FBF3F25F
:10433C001A4BA3FB02035B09642000FB03F3D31AA3
:10434C001B013233154AA2FB03235B0903F0F00374
:10435C001944FA6813469B0013449A001A447B686C
:10436C005B689B00B2FBF3F20C4BA3FB02035B09F3
:10437C00642000FB03F3D31A1B013233074AA2FB60
:10438C0003235B0903F00F027B681B680A449A60E5
:10439C0000BF1037BD4680BD003801401F85EB5172
:1043AC000EB46FF0004100B59CB01DAB02900690AE
:1043BC00079104910848094953F8042B05910068AA
:1043CC0002A9019300F092F90022029B1A701CB012
:1043DC005DF804EB03B070475C0000200802FFFF9F
:1043EC0003460244934200D1704703F8011BF9E7DE
:1043FC00014B1868704700BF5C00002070B50026A8
:10440C000C4D0D4C641BA410A64209D100F078FC95
:10441C0000260A4D0A4C641BA410A64205D170BD9F
:10442C0055F8043B98470136EEE755F8043B98479E
:10443C000136F2E7AC4D0008AC4D0008AC4D00085D
:10444C00B04D00087047704738B50546002940D07C
:10445C0051F8043C0C1F002BB8BFE41800F0DEF838
:10446C001C4A136833B9636014602846BDE83840B1
:10447C0000F0DAB8A34208D9206821188B4201BF9A
:10448C0019685B6809182160EDE71A465B680BB187
:10449C00A342FAD911685018A0420BD120680144EC
:1044AC00501883421160E0D118685B6808441060B2
:1044BC005360DAE702D90C232B60D6E72068211869
:1044CC008B4201BF19685B680918216063605460F6
:1044DC00CBE738BD1403002070B50F4E0C46316885
:1044EC00054611B900F0AAFB30602146284600F0C1
:1044FC00A5FB431C03D14FF0FF34204670BDC41CF8
:10450C0024F00304A042F8D0211A284600F096FBB0
:10451C000130F2D1EFE700BF100300202DE9F84382
:10452C00CD1C25F0030508350C2D38BF0C25002DAE
:10453C00064601DBA94204D90C2333600020BDE8F8
:10454C00F883DFF8D48000F069F8D8F800301C4606
:10455C0044BB29463046FFF7BFFF431C044658D1E5
:10456C00D8F800402746002F43D1002C4BD02368AD
:10457C003946304604EB030900F060FB814542D11B
:10458C00216830466D1A2946FFF7A6FF01303AD054
:10459C0023682B442360D8F800305A6862BBC8F8F3
:1045AC0000700FE02268521B20D40B2A17D9611916
:1045BC00A342256018BF5960636808BFC8F8001093
:1045CC0062514B60304600F02FF804F10B00231DB4
:1045DC0020F00700C21A1CBF1B1AA350AFE7626879
:1045EC00A3420CBFC8F800205A60EBE7234664686E
:1045FC00AEE73C467F68B6E71A465B68A342FBD140
:10460C0000235360DEE70C233046336000F00CF8D7
:10461C0094E70560D6E700BF140300200148FFF7BC
:10462C0011BF00BF0C0300200148FFF70CBF00BFF7
:10463C000C0300202DE9F0471F468E688246BE42CF
:10464C000C4690460B682DD8B1F90C2012F4906FE3
:10465C0026D06569096905EB4505A3EB010905EB56
:10466C00D5757B1C4B446D109D4238BF1D465305C0
:10467C0027D52946FFF752FF064660B34A46216903
:10468C0000F0FAFAA38923F4906343F08003A3812A
:10469C0026614E4426603E466561A5EB0905A56082
:1046AC00BE4200D93E4632464146206800F0ACFA84
:1046BC000020A3689B1BA360236833442360BDE8E0
:1046CC00F0872A4600F0E6FA06460028E0D150466C
:1046DC002169FFF7B9FE0C23CAF80030A3894FF00B
:1046EC00FF3043F04003A381E9E700002DE9F04FD0
:1046FC0098468B8907461B060D4614469DB010D56F
:10470C000B6973B94021FFF709FF2860286130B9A4
:10471C000C233B604FF0FF301DB0BDE8F08F402301
:10472C006B610023099320238DF8293030234FF03F
:10473C000109CDF80C80DFF898818DF82A302346DA
:10474C009A4613F8012B0AB1252AF9D1BAEB040BBE
:10475C000BD05B46224629463846FFF76BFF0130EB
:10476C0000F0A780099A5A4409929AF80030002B5D
:10477C0000F09F8000234FF0FF32CDE905230AF1B2
:10478C00010A049307938DF853301A93544605226B
:10479C0014F8011B4E4800F061FA049AD8B9D006FF
:1047AC0044BF20238DF85330110744BF2B238DF8C1
:1047BC0053309AF800302A2B15D0544600204FF075
:1047CC000A0C079A214611F8013B303B092B4BD9B7
:1047DC00B0B1079214E0A0EB080309FA03F31343FA
:1047EC00A2460493D2E7039B191D1B680391002B6F
:1047FC00BBBF5B4242F0020207930793B8BF04921F
:10480C0023782E2B0AD163782A2B32D1039B0234C6
:10481C001A1D1B68039243EAE3730593DFF8B4A0F7
:10482C0003225046217800F019FA38B14022049B3B
:10483C00A0EB0A00824013430134049314F8011BCB
:10484C00062225488DF8281000F008FA002836D0EA
:10485C00224B1BBB039B073323F007030833039343
:10486C00099B334409936AE70C4601200CFB023286
:10487C00A8E700234FF00A0C194601340593204693
:10488C0010F8012B303A092A03D9002BC6D0059118
:10489C00C4E7044601230CFB0121F0E703AB0093B2
:1048AC002A4638460E4B04A9AFF30080421C06463C
:1048BC00D6D1AB895B063FF52DAF09982CE703AB3E
:1048CC0000932A463846064B04A900F07DF8EDE724
:1048DC006E4D0008744D0008784D00080000000073
:1048EC00414600082DE9F047164698468A680B6940
:1048FC0007469342B8BF1346336091F843200C46E9
:10490C00DDF820900AB1013333602368990642BF69
:10491C00336802333360256815F0060506D104F1BF
:10492C00190AE36832689B1AAB422BDC94F84330CB
:10493C002268003B18BF0123920630D4414638460A
:10494C0004F14302C847013023D02368226903F0E5
:10495C000603042B14BF002533684FF0000608BF74
:10496C00E56804F11A0408BFED1A54F8123C08BFAC
:10497C0025EAE5759342C4BF9B1AED18B5421AD1CE
:10498C00002008E00123524641463846C847013012
:10499C0003D14FF0FF30BDE8F0870135C1E730207F
:1049AC00E11881F843005A1C94F845102244023354
:1049BC0082F84310C2E70123224641463846C847D5
:1049CC000130E6D00136D9E72DE9FF470F7E91463D
:1049DC00782F80460C469A460C9E01F1430207D86C
:1049EC00622F0AD8002F00F0D380582F00F0BA8025
:1049FC0004F1420684F842703AE0A7F16303152BE8
:104A0C00F6D801A151F823F06D4A0008814A00083C
:104A1C00FD490008FD490008FD490008FD49000852
:104A2C00814A0008FD490008FD490008FD490008BD
:104A3C00FD490008834B0008AB4A00083D4B0008B9
:104A4C00FD490008FD490008A54B0008FD49000878
:104A5C00AB4A0008FD490008FD490008454B000819
:104A6C0033681A1D1B68326004F1420684F8423028
:104A7C0001239EE033682068191D3160060601D5BC
:104A8C001D6803E04506FBD5B3F90050002D03DA91
:104A9C002D236D4284F843300A23594811E02168D4
:104AAC003368080653F8045B02D4490648BFADB21C
:104ABC006F2F336014BF0A2308235148002184F858
:104ACC0043106668002EA8BF2168A660A4BF21F021
:104ADC00040121600DB9002E4BD01646B5FBF3F145
:104AEC0003FB1157C75D06F8017D2F46BB420D46EF
:104AFC00F4D9082B0BD12368DF0708D5236961682B
:104B0C009942DEBF302306F8013C06F1FF36921BBA
:104B1C0022614B4621464046CDF800A003AAFFF780
:104B2C00E1FE01304AD14FF0FF3004B0BDE8F08710
:104B3C00236843F0200323607827324884F84570BB
:104B4C00236831681F0651F8045B02D45F0648BF26
:104B5C00ADB23160D90744BF43F0200323601DB1CF
:104B6C001023ABE72648E9E7236823F020032360F2
:104B7C00F6E71646BDE733682568181D6169306095
:104B8C002E061B6801D5196002E06806FBD519805A
:104B9C00002316462361BCE7336800211A1D3260DE
:104BAC001E686268304600F059F808B1801B6060DE
:104BBC0063682361002384F84330AAE732464946F0
:104BCC0040462369D0470130ADD023689B0713D4EE
:104BDC00E068039B9842B8BF1846A6E7012332460B
:104BEC0049464046D04701309DD00135E3680399D2
:104BFC005B1AAB42F2DCEBE7002504F11906F5E792
:104C0C007F4D0008904D0008884210B501EB02045E
:104C1C0002D98442234607D8431EA14208D011F87A
:104C2C00012B03F8012FF8E7014602448A4200D118
:104C3C0010BD13F8014D02F8014DF7E738B500230C
:104C4C00054D044608462B60FCF7BAFC431C02D108
:104C5C002B6803B1236038BD08030020034610B550
:104C6C00C9B202449342184601D1002003E00478F3
:104C7C0001338C42F6D110BD0A44914200F1FF334E
:104C8C0000D1704710B511F8014B914203F8014F58
:104C9C00F9D110BD2DE9F041804615460C4621B9DD
:104CAC001146BDE8F041FFF739BC2AB9FFF7CCFB40
:104CBC0000242046BDE8F08100F01AF88542064633
:104CCC0002D8B5EB500FF4D829464046FFF726FC26
:104CDC0007460028ECD0B5422A46214628BF32466A
:104CEC00FFF7CAFF21464046FFF7AEFB3C46E0E724
:104CFC0051F8043C181F002BBCBF0B58C018704750
:104D0C00F8B500BFF8BC08BC9E467047F8B500BFAC
:084D1C00F8BC08BC9E4670477C
:104D24004D6F646520256400636F756E745820258B
:104D34006C640000636F756E745920256C64000008
:104D44000000000000000000010203040607080937
:104D54000000000001020304020304050607080919
:104D64000A0B0C0D0E0F10100102232D302B200006
:104D7400686C4C0065666745464700303132333411
:104D840035363738394142434445460030313233B1
:104D94003435363738396162636465660000000073
:084DA400A8B3FF7F010000002D
:044DAC0031010008C9
:044DB0000D010008E9
:104DB4006009000060090000C0120000C012000079
:104DC400C0120000C0120000C0120000800C0000DD
:104DD40000000000800C0000010000000100000041
:104DE40000000000010000000000000001000000BD
:104DF40000000000010000000000000000000000AE
:104E040000127A0010000000010000006000002081
:104E140000000000D001002038020020A002002081
:104E2400000000000000000000000000000000007E
:104E3400000000000000000000000000000000006E
:104E4400000000000000000000000000000000005E
:0C4E540000000000000000000000000052
:040000050800164594
:00000001FF
