:020000040800F2
:100000000050002025220008A91F0008B11F000889
:10001000B91F0008C11F0008C91F00080000000028
:10002000000000000000000000000000D11F0008D8
:10003000DD1F000800000000E91F0008F51F000890
:100040006D2200086D2200086D2200086D22000854
:100050006D2200086D2200086D2200086D22000844
:100060006D2200086D2200086D2200086D22000834
:100070006D2200086D2200086D2200086D22000824
:100080006D2200086D2200086D2200086D22000814
:100090006D2200086D2200086D2200080120000872
:1000A0001D200008312000084520000859200008C4
:1000B0006D2000086D2200086D2200086D220008E6
:1000C0006D2200086D2200086D2200086D220008D4
:1000D0006D220008812000086D2200086D220008B2
:1000E0006D2200086D2200086D220008000000004B
:1000F0000000000000000000000000000000000000
:0C01000000000000000000005FF808F1A3
:1001100010B5054C237833B9044B13B10448AFF341
:1001200000800123237010BD680200200000000041
:1001300074A1000808B5034B1BB103490348AFF392
:10014000008008BD000000006C02002074A10008BF
:10015000034613F8012B002AFBD1181A0138704707
:1001600081F0004102E000BF83F0004330B54FEA68
:1001700041044FEA430594EA050F08BF90EA020FD5
:100180001FBF54EA000C55EA020C7FEA645C7FEA68
:10019000655C00F0E2804FEA5454D4EB5555B8BF8B
:1001A0006D420CDD2C4480EA020281EA030382EAFC
:1001B000000083EA010180EA020281EA0303362D8E
:1001C00088BF30BD11F0004F4FEA01314FF4801C61
:1001D0004CEA113102D0404261EB410113F0004F73
:1001E0004FEA03334CEA133302D0524263EB43032A
:1001F00094EA050F00F0A780A4F10104D5F1200EC8
:100200000DDB02FA0EFC22FA05F2801841F1000122
:1002100003FA0EF2801843FA05F359410EE0A5F1F6
:1002200020050EF1200E012A03FA0EFC28BF4CF027
:10023000020C43FA05F3C01851EBE37101F00045DD
:1002400007D54FF0000EDCF1000C7EEB00006EEBEA
:100250000101B1F5801F1BD3B1F5001F0CD3490874
:100260005FEA30004FEA3C0C04F101044FEA4452CB
:1002700012F5800F80F09A80BCF1004F08BF5FEA52
:10028000500C50F1000041EB045141EA050130BD32
:100290005FEA4C0C404141EB0101013C28BFB1F544
:1002A000801FE9D291F0000F04BF01460020B1FA8F
:1002B00081F308BF2033A3F10B03B3F120020CDA62
:1002C0000C3208DD02F1140CC2F10C0201FA0CF040
:1002D00021FA02F10CE002F11402D8BFC2F1200CA5
:1002E00001FA02F120FA0CFCDCBF41EA0C0190405B
:1002F000E41AA2BF01EB0451294330BD6FEA0404A4
:100300001F3C1CDA0C340EDC04F11404C4F120028E
:1003100020FA04F001FA02F340EA030021FA04F3A0
:1003200045EA030130BDC4F10C04C4F1200220FAF7
:1003300002F001FA04F340EA0300294630BD21FA35
:1003400004F0294630BD94F0000F83F4801306BFFB
:1003500081F480110134013D4EE77FEA645C18BFEF
:100360007FEA655C29D094EA050F08BF90EA020F86
:1003700005D054EA000C04BF1946104630BD91EA7E
:10038000030F1EBF0021002030BD5FEA545C05D181
:100390004000494128BF41F0004130BD14F58004C0
:1003A0003CBF01F5801130BD01F0004545F0FE4134
:1003B00041F470014FF0000030BD7FEA645C1ABF69
:1003C000194610467FEA655C1CBF0B46024650EAA0
:1003D000013406BF52EA033591EA030F41F40021CC
:1003E00030BD00BF90F0000F04BF0021704730B552
:1003F0004FF4806404F132044FF000054FF0000127
:1004000050E700BF90F0000F04BF0021704730B5E7
:100410004FF4806404F1320410F0004548BF4042BC
:100420004FF000013EE700BF42004FEAE2014FEA11
:1004300031014FEA02701FBF12F07F4393F07F4FEC
:1004400081F06051704732F07F4208BF704793F0EF
:100450007F4F04BF41F40021704730B54FF4607402
:1004600001F0004521F000411CE700BF50EA010205
:1004700008BF704730B54FF000050AE050EA0102AE
:1004800008BF704730B511F0004502D5404261EB1E
:1004900041014FF4806404F132045FEA915C3FF45F
:1004A000D8AE4FF003025FEADC0C18BF03325FEAFC
:1004B000DC0C18BF033202EBDC02C2F1200300FAAD
:1004C00003FC20FA02F001FA03FE40EA0E0021FAD2
:1004D00002F11444BDE600BF70B54FF0FF0C4CF4C0
:1004E000E06C1CEA11541DBF1CEA135594EA0C0F72
:1004F00095EA0C0F00F0DEF82C4481EA030621EAAD
:100500004C5123EA4C5350EA013518BF52EA0335E7
:1005100041F4801143F4801338D0A0FB02CE4FF099
:100520000005E1FB02E506F00042E0FB03E54FF0C9
:100530000006E1FB03569CF0000F18BF4EF0010EC1
:10054000A4F1FF04B6F5007F64F5407404D25FEABD
:100550004E0E6D4146EB060642EAC62141EA555170
:100560004FEAC52040EA5E504FEACE2EB4F1FD0CB2
:1005700088BFBCF5E06F1ED8BEF1004F08BF5FEA30
:10058000500E50F1000041EB045170BD06F00046E2
:1005900046EA010140EA020081EA0301B4EB5C048F
:1005A000C2BFD4EB0C0541EA045170BD41F4801187
:1005B0004FF0000E013C00F3AB8014F1360FDEBFAC
:1005C000002001F0004170BDC4F10004203C35DA88
:1005D0000C341BDC04F11404C4F1200500FA05F30B
:1005E00020FA04F001FA05F240EA020001F00042AC
:1005F00021F0004110EBD37021FA04F642EB060122
:100600005EEA430E08BF20EAD37070BDC4F10C044B
:10061000C4F1200500FA04F320FA05F001FA04F20F
:1006200040EA020001F0004110EBD37041F10001FB
:100630005EEA430E08BF20EAD37070BDC4F1200506
:1006400000FA05F24EEA020E20FA04F301FA05F26E
:1006500043EA020321FA04F001F0004121FA04F216
:1006600020EA020000EBD3705EEA430E08BF20EAE6
:10067000D37070BD94F0000F0FD101F00046400020
:1006800041EB010111F4801F08BF013CF7D041EAA2
:10069000060195F0000F18BF704703F000465200A6
:1006A00043EB030313F4801F08BF013DF7D043EA77
:1006B0000603704794EA0C0F0CEA135518BF95EA2D
:1006C0000C0F0CD050EA410618BF52EA4306D1D1B4
:1006D00081EA030101F000414FF0000070BD50EAD3
:1006E000410606BF1046194652EA430619D094EA5D
:1006F0000C0F02D150EA013613D195EA0C0F05D147
:1007000052EA03361CBF104619460AD181EA03019A
:1007100001F0004141F0FE4141F470014FF0000052
:1007200070BD41F0FE4141F4780170BD70B54FF0ED
:10073000FF0C4CF4E06C1CEA11541DBF1CEA13556D
:1007400094EA0C0F95EA0C0F00F0A7F8A4EB05044F
:1007500081EA030E52EA03354FEA013100F0888046
:100760004FEA03334FF0805545EA131343EA12630F
:100770004FEA022245EA111545EA10654FEA0026C4
:100780000EF000419D4208BF964244F1FD0404F57D
:10079000407402D25B084FEA3202B61A65EB0305D9
:1007A0005B084FEA32024FF480104FF4002CB6EB96
:1007B000020E75EB030E22BFB61A754640EA0C0016
:1007C0005B084FEA3202B6EB020E75EB030E22BF56
:1007D000B61A754640EA5C005B084FEA3202B6EB97
:1007E000020E75EB030E22BFB61A754640EA9C0056
:1007F0005B084FEA3202B6EB020E75EB030E22BF26
:10080000B61A754640EADC0055EA060E18D04FEAE3
:10081000051545EA16754FEA06164FEAC30343EA83
:1008200052734FEAC2025FEA1C1CC0D111F4801F50
:100830000BD141EA00014FF000004FF0004CB6E749
:1008400011F4801F04BF01430020B4F1FD0C88BFE8
:10085000BCF5E06F3FF6AFAEB5EB030C04BFB6EBF3
:10086000020C5FEA500C50F1000041EB045170BDE6
:100870000EF0004E4EEA113114EB5C04C2BFD4EB13
:100880000C0541EA045170BD41F480114FF0000E97
:10089000013C90E645EA060E8DE60CEA135594EA13
:1008A0000C0F08BF95EA0C0F3FF43BAF94EA0C0F16
:1008B0000AD150EA01347FF434AF95EA0C0F7FF48B
:1008C00025AF104619462CE795EA0C0F06D152EADF
:1008D00003353FF4FDAE1046194622E750EA4106C3
:1008E00018BF52EA43067FF4C5AE50EA41047FF4D4
:1008F0000DAF52EA43057FF4EBAE12E74FF0FF3C39
:1009000006E000BF4FF0010C02E000BF4FF0010C09
:100910004DF804CD4FEA410C7FEA6C5C4FEA430C82
:1009200018BF7FEA6C5C1BD001B050EA410C0CBFD1
:1009300052EA430C91EA030F02BF90EA020F002033
:10094000704710F1000F91EA030F58BF994208BF9A
:1009500090422CBFD8176FEAE37040F00100704757
:100960004FEA410C7FEA6C5C02D150EA013C07D1AE
:100970004FEA430C7FEA6C5CD6D152EA033CD3D0F9
:100980005DF8040B704700BF8446104662468C46F3
:100990001946634600E000BF01B5FFF7B7FF002826
:1009A00048BF10F1000F01BD4DF808EDFFF7F4FF4F
:1009B0000CBF012000205DF808FB00BF4DF808EDDA
:1009C000FFF7EAFF34BF012000205DF808FB00BFFD
:1009D0004DF808EDFFF7E0FF94BF012000205DF81F
:1009E00008FB00BF4DF808EDFFF7CEFF94BF0120D4
:1009F00000205DF808FB00BF4DF808EDFFF7C4FFCD
:100A000034BF012000205DF808FB00BF4FEA410C15
:100A10007FEA6C5C02D150EA013C0AD14FEA430CF8
:100A20007FEA6C5C02D152EA033C02D14FF0000035
:100A300070474FF0010070474FEA410212F5001273
:100A400015D211D56FF47873B3EB625212D94FEA15
:100A5000C12343F0004343EA505311F0004F23FAFF
:100A600002F018BF404270474FF00000704750EA54
:100A7000013005D111F0004008BF6FF00040704711
:100A80004FF00000704700BF4A0011D212F500126B
:100A900011D20DD56FF47873B3EB62520ED44FEAD6
:100AA000C12343F0004343EA505323FA02F0704756
:100AB0004FF00000704750EA013002D14FF0FF3094
:100AC00070474FF0000070474FEA4102B2F1E04337
:100AD00024BFB3F5001CDCF1FE5C0DD901F0004C25
:100AE0004FEAC0024CEA5070B2F1004F40EB830075
:100AF00008BF20F00100704711F0804F21D113F1A1
:100B00003872BCBF01F00040704741F480114FEAD9
:100B10005252C2F11802C2F1200C10FA0CF320FA62
:100B200002F018BF40F001004FEAC1234FEAD3237F
:100B300003FA0CFC40EA0C0023FA02F34FEA4303E9
:100B4000CCE77FEA625307D150EA01331EBF4FF072
:100B5000FE4040F44000704701F0004040F0FE408D
:100B600040F40000704700BF38B50022002304465F
:100B70000D46FFF723FF28B920462946BDE8384037
:100B800000F00AB8204605F1004100F005F84042A7
:100B900061EB410138BD00BFD0B500220B4B0646CA
:100BA0000F46FFF799FCFFF76FFF0446FFF71AFCAB
:100BB0000022074BFFF790FC02460B4630463946B1
:100BC000FFF7D2FAFFF760FF2146D0BD0000F03DED
:100BD0000000F04180B5B4B000AF01F049FB00F077
:100BE00033F800F0AFF900F06BF800F00BF900F00B
:100BF0007FF9104802F072FB0F4802F06FFB0F4ABA
:100C00003B461146CD22184605F07FFB3B46184671
:100C1000FFF79EFA03469AB239464FF0FF33084871
:100C200003F00DFD01220749054803F093FD00BFC5
:100C3000FDE700BF84020020CC02002090A1000844
:100C400014030020580A002080B590B000AF07F1CF
:100C5000180328220021184605F0C9FA3B1D00227E
:100C60001A605A609A60DA601A610223BB6101233C
:100C7000BB621023FB6200237B6307F11803184655
:100C800001F0CCFE0346002B01D001F057F80F23F2
:100C90007B600023BB600023FB6000233B610023DB
:100CA0007B613B1D0021184602F03AF90346002BF8
:100CB00001D001F043F800BF4037BD4680BD0000C1
:100CC00080B596B000AF07F1480300221A605A6061
:100CD0009A60DA6007F1400300221A605A6007F157
:100CE000240300221A605A609A60DA601A615A611D
:100CF0009A613B1D20220021184605F078FA3F4BEF
:100D00003F4A1A603D4B07225A603C4B00229A60D2
:100D10003A4B40F2E732DA60384B00221A61374B27
:100D200000225A61354B00229A61344802F086FA5B
:100D30000346002B01D001F001F84FF48053BB644F
:100D400007F1480319462D4802F0CCFF0346002B5B
:100D500001D000F0F3FF294802F012FB0346002BFC
:100D600001D000F0EBFF00233B6400237B6407F11C
:100D700040031946214803F051FB0346002B01D0E4
:100D800000F0DCFF60237B624FF49673BB620023AC
:100D9000FB6200233B6300237B630023BB630023D0
:100DA000FB6307F1240300221946144802F0D8FE21
:100DB0000346002B01D000F0C1FF00237B6000231D
:100DC000BB600023FB6000233B6100237B614FF489
:100DD0000053BB6100233B623B1D1946074803F0EB
:100DE0007BFB0346002B01D000F0A8FF034801F075
:100DF00035F800BF5837BD4680BD00BF84020020D3
:100E0000002C014080B58EB000AF07F1280300220E
:100E10001A605A609A60DA6007F1200300221A60B3
:100E20005A603B1D00221A605A609A60DA601A61AB
:100E30005A619A612D4B4FF080421A602B4B07226A
:100E40005A602A4B00229A60284B40F2E732DA605F
:100E5000264B00221A61254B00229A61234802F09A
:100E6000EDF90346002B01D000F068FF4FF48053EA
:100E7000BB6207F1280319461C4802F033FF034602
:100E8000002B01D000F05AFF184802F079FA03460F
:100E9000002B01D000F052FF00233B6200237B6255
:100EA00007F120031946114803F0B8FA0346002B56
:100EB00001D000F043FF60237B604FF49673BB606A
:100EC0000023FB6000237B613B1D0022194607487D
:100ED00002F046FE0346002B01D000F02FFF03482E
:100EE00000F0BCFF00BF3837BD4680BDCC020020FB
:100EF00080B500AF114B124A1A60104B4FF41652D6
:100F00005A600E4B00229A600C4B0022DA600B4BA9
:100F100000221A61094B0C225A61084B00229A6187
:100F2000064B0022DA61054803F039FB0346002B2B
:100F300001D000F003FF00BF80BD00BF14030020FC
:100F40000038014080B588B000AF07F110030022DF
:100F50001A605A609A60DA60324B9B69314A43F0FA
:100F6000200393612F4B9B6903F02003FB60FB6818
:100F70002C4B9B692B4A43F004039361294B9B69DB
:100F800003F00403BB60BB68264B9B69254A43F012
:100F900008039361234B9B6903F008037B607B6824
:100FA00000220421204801F009FD00224FF40041F5
:100FB0001E4801F003FD04233B6101237B610023F4
:100FC000BB610223FB6107F110031946164801F0CB
:100FD00071FB4FF400433B6101237B610023BB6144
:100FE0000223FB6107F110031946104801F062FB70
:100FF0004FF4E0733B610E4B7B610023BB6107F153
:1010000010031946094801F055FB00220021172062
:1010100001F067FA172001F080FA00BF2037BD46C3
:1010200080BD00BF0010024000080140000C0140DC
:10103000000011102DE9B04394B000AFF860B96022
:101040007A6000218A4802F0E9FB0021894802F019
:10105000E5FB894B01221A60FB68DB00BA68134488
:10106000D3E90001854BD3E90023FFF77DF8024661
:101070000B468349C1E90023FB68DB007A6813440F
:10108000D3E900017F4BD3E90023FFF76DF8024657
:101090000B467D49C1E90023794BD3E900014FF0AC
:1010A00000024FF00003FFF7A7FC0346002B09D016
:1010B00001224FF40041754801F080FC744B01227D
:1010C0001A601EE06E4BD3E900014FF000024FF0B2
:1010D0000003FFF773FC0346002B09D000224FF4F6
:1010E00000416A4801F06AFC694B00221A6008E07E
:1010F000674B1B68DBB21A464FF40041634801F0AE
:101100005DFC614BD3E900014FF000024FF000039A
:10111000FFF772FC0346002B08D0012204215D4832
:1011200001F04CFC5C4B01221A601CE0564BD3E9E9
:1011300000014FF000024FF00003FFF73FFC0346B1
:10114000002B08D000220421524801F037FC524BFA
:1011500000221A6007E0504B1B68DBB21A460421DC
:101160004C4801F02BFC464BD3E90023904623F07A
:101170000049434BC3E90089434BD3E9002314469C
:1011800023F00045404BC3E900453D4BD3E9000146
:101190003D4BD3E90023FFF72FFC0346002B00F063
:1011A0008780374BD3E900014FF000024FF0000376
:1011B000FFF7FAFB0346002B7AD1334BD3E900014A
:1011C0004FF000024FF00003FFF7EEFB0346002B49
:1011D0006ED107F1100300223049184604F078FF61
:1011E00007F110031846FEF7B3FF03469AB207F162
:1011F00010014FF0FF332A4803F021FA1C4B1B6803
:101200004FF44872DA621A4B4FF44872DA601C4BA2
:10121000D3E900011C4BD3E90023FFF787FA02460C
:101220000B462049C1E900231E4BD3E900014FF0D2
:1012300000021D4BFFF750F902460B4610461946B7
:10124000FFF722FC0346194A13600A4B1B68174A32
:101250001268DA62154B1B68064AD3600021044805
:1012600002F0ECF90021034802F0E8F9A1E100BF27
:1012700084020020CC020020F4090020B0090020E4
:10128000A0090020B8090020A8090020000C014096
:10129000E409002000080140E809002060A20008DD
:1012A00014030020080A002000008940CC09002017
:1012B000944BD3E90001944BD3E90023FFF77EFB65
:1012C0000346002B65D08F4BD3E900014FF000029D
:1012D0004FF00003FFF768FB0346002B59D18A4B00
:1012E000D3E900014FF000024FF00003FFF75CFB71
:1012F0000346002B4DD107F1100301228349184604
:1013000004F0E6FE07F110031846FEF721FF03463E
:101310009AB207F110014FF0FF337D4803F08FF9C7
:101320007C4B1B684FF44872DA627A4B4FF4487278
:10133000DA60754BD3E90001724BD3E90023FFF764
:10134000F5F902460B467449C1E90023724BD3E913
:1013500000014FF00002714BFFF7BEF802460B464A
:1013600010461946FFF790FB03466D4A13606D4B1C
:101370001B686B4A1268DA62694B1B68694AD36062
:101380000021684802F05AF90021624802F056F93B
:101390000FE15C4BD3E900015B4BD3E90023FFF77E
:1013A00003FB0346002B2FD007F1100302225749FD
:1013B000184604F08DFE07F110031846FEF7C8FE2C
:1013C00003469AB207F110014FF0FF33504803F083
:1013D00036F9544B1B684FF44872DA62514B4FF4A4
:1013E0004872DA604B4B1B684FF44872DA62494B23
:1013F0004FF44872DA6000214A4802F01FF90021D8
:10140000444802F01BF9D4E03E4BD3E900014FF011
:1014100000024FF00003FFF7C7FA0346002B2FD05E
:10142000394BD3E900014FF000024FF00003FFF702
:10143000BBFA0346002B23D007F1100303223349E4
:10144000184604F045FE07F110031846FEF780FE2B
:1014500003469AB207F110014FF0FF332C4803F016
:10146000EEF8314B01221A60304B01221A60002144
:101470002C4802F0D3F90021264802F0CFF998E079
:10148000204BD3E900014FF000024FF00003FFF7BB
:101490008BFA0346002B4BD01B4BD3E900014FF0D6
:1014A00000024FF00003FFF77FFA0346002B3FD105
:1014B00007F1100304221549184604F009FE07F14C
:1014C00010031846FEF744FE03469AB207F11001D6
:1014D0004FF0FF330E4803F0B2F8134B01221A60AD
:1014E0000C4B1B684FF44872DA620A4B4FF4487297
:1014F000DA6000210B4802F091F90021054802F062
:101500009DF856E0A0090020A809002060A200086C
:1015100014030020CC020020080A002000008940AB
:10152000C809002084020020D0090020D40900202E
:101530002B4BD3E900014FF000024FF00003FFF7FF
:1015400033FA0346002B34D1264BD3E900014FF088
:1015500000024FF00003FFF727FA0346002B28D0C4
:1015600007F1100305222049184604F0B1FD07F1E8
:1015700010031846FEF7ECFD03469AB207F110017E
:101580004FF0FF33194803F05AF8194B01221A6043
:10159000184B1B684FF44872DA62164B4FF44872CE
:1015A000DA600021144802F039F90021114802F0F4
:1015B00045F8FB68DB00BA681344D3E900230F4900
:1015C000C1E90023FB68DB007A681344D3E90023F8
:1015D0000B49C1E9002300BF5037BD46BDE8B083C9
:1015E000A0090020A809002060A200081403002020
:1015F000D409002084020020CC020020B009002081
:10160000B809002080B500AF134B1B684FF4487237
:10161000DA62114B4FF44872DA60104B1B684FF4DA
:101620004872DA620D4B4FF44872DA6000220421EE
:101630000B4801F0C3F900224FF40041094801F0C2
:10164000BDF90021044801F0F3FE0021034801F038
:10165000EFFE00BF80BD00BF84020020CC0200204E
:1016600000080140000C0140B0B592B000AF7860B6
:101670007B681B689D4A934250D19D4B1B68002B91
:101680004CD19C4B1B6801339A4A1360994B1B68E1
:101690001846FEF7A7FE04460D46974BD3E9000116
:1016A0004FF00002954BFEF717FF02460B4610461F
:1016B00019464FF00002924BFEF70EFF02460B4612
:1016C000104619464FF000028E4BFEF74DFD0246C4
:1016D0000B4620462946FFF78FF90346002B1DD005
:1016E000844B1A68884B1B6807F10800874904F08F
:1016F000EFFC07F108031846FEF72AFD03469AB2ED
:1017000007F108014FF47A73814802F098FF002135
:10171000804802F083F8804B01221A607B681B68C6
:10172000B3F1804F50D17D4B1B68002B4CD17C4BCB
:101730001B6801337A4A1360794B1B681846FEF721
:1017400051FE04460D46774BD3E900014FF00002ED
:101750006A4BFEF7C1FE02460B46104619464FF093
:101760000002674BFEF7B8FE02460B4610461946CC
:101770004FF00002634BFEF7F7FC02460B46204693
:101780002946FFF739F90346002B1DD0644B1A6830
:10179000654B1B6807F10800644904F099FC07F1E8
:1017A00008031846FEF7D4FC03469AB207F1080175
:1017B0004FF47A73564802F042FF00215C4802F071
:1017C0002DF85C4B01221A60534B1B68012B4ED144
:1017D000584B1B68012B4AD1454B1B68002B46D147
:1017E0004E4B1B68002B42D1534B1B680133524AAE
:1017F0001360494B00221A604E4B00221A603D4B89
:1018000000221A60464B00221A604C4B1B68012BC9
:1018100013D14B4B09221A60474B1A68484B1B687F
:101820009A4207D2444B1B68464A47491846FFF77D
:1018300001FC02E0454B00221A60454B1B68012B5E
:1018400015D1444B1B781A463D4B1A603A4B1A6827
:101850003B4B1B689A4207D2374B1B683E4A3F49B5
:101860001846FFF7E7FB02E0384B00221A607B685E
:101870001B681E4A934217D11D4B1B68012B13D1C5
:10188000374B1B680133364A1360354B1B68B3F581
:10189000487F09D900211F4801F0C0FF144B0022E6
:1018A0001A602F4B00221A607B681B68B3F1804FCF
:1018B00017D11A4B1B68012B13D12A4B1B6801331C
:1018C000284A1360274B1B68B3F5487F09D90021CC
:1018D000174801F0A3FF114B00221A60214B002290
:1018E0001A6000BF4837BD46B0BD00BF002C0140A4
:1018F000EC090020D8090020A009002000002440A5
:10190000000069400000F03FE40900206CA20008DC
:101910001403002084020020D0090020F0090020D8
:10192000DC090020A8090020E809002084A20008A2
:10193000CC020020D4090020E0090020000A002089
:10194000C00900204800002000000020F409002009
:10195000C4090020510A00208006002060030020F6
:10196000F8090020FC09002080B582B000AF0346D2
:10197000FB80FB88402B05D1184B1B68002B01D145
:10198000FFF740FEFB88802B10D1154B01221A6017
:101990000021144801F0EEFD01224FF400411248ED
:1019A00001F00CF800210F4801F048FEFB88B3F568
:1019B000807F0FD10D4B01221A6000210C4801F0ED
:1019C000D9FD012204210B4800F0F8FF002108484E
:1019D00001F034FE00BF0837BD4680BDF409002089
:1019E000EC09002084020020000C0140F0090020D6
:1019F000CC02002000080140B0B5B2B004AF78605E
:101A00007B681A68964B1B689A4240F08281954B1E
:101A10001B68002B40F09880934B1B78312B1ED114
:101A2000924B07F1A0041D460FCD0FC42B682380F5
:101A300007F1A0031846FEF78BFB03469AB207F1A5
:101A4000A0014FF0FF33864802F0F9FD884B0122D8
:101A50001A60884A88490020FFF7ECFA59E1824B66
:101A60001B78322B1FD17F4B01221A60834B01223E
:101A70001A60834B07F188041D460FCD0FC495E80B
:101A8000030020600434217007F188031846FEF734
:101A90005FFB03469AB207F188014FF0FF337048AD
:101AA00002F0CDFD35E1704B1B78332B38D100238C
:101AB000C7F8B4302CE0734AD7F8B430DB001344D5
:101AC000D3E900237048D7F8B410C9000144D1E924
:101AD000000107F10C04CDE90201CDE90023D7F89C
:101AE000B4206A49204604F0F3FA07F10C031846C3
:101AF000FEF72EFB03469AB207F10C014FF47A73FE
:101B0000574802F09CFDD7F8B4300133C7F8B43021
:101B10005F4B1B781A46D7F8B4309342CBDBF8E022
:101B2000514B1B78342B40F0F4805A4B00221A6042
:101B30004F4B00221A60514B01221A60524A514900
:101B40000020FFF777FAE4E0464B1B68012B40F0DA
:101B5000E080454B1B783B2B40F0AC804E4B1B7814
:101B60001A464E4B002199544C48FEF7F1FA0346B1
:101B70009AB24FF47A734949394802F060FD07F18F
:101B8000780307F180024649444804F0C1FA03464D
:101B9000022B43D1434B00221A60434B00221A60B0
:101BA0003B4B1B781946D7E920233648C90001442E
:101BB000C1E90023364B1B781946D7E91E2332486A
:101BC000C9000144C1E90023314B1B782E4A2D493D
:101BD0001846FFF72FFA2E4B1B780133DAB22C4B45
:101BE0001A70D7E92001D7E91E2307F10C04CDE9CB
:101BF000002302460B462D49204604F069FA07F1FE
:101C00000C031846FEF7A4FA03469AB207F10C013A
:101C10004FF47A73124802F012FD18E0244B07F1DA
:101C200060041D460FCD0FC495E803002060043406
:101C3000217007F160031846FEF78AFA03469AB24C
:101C400007F160014FF47A73054802F0F8FC402276
:101C50000021124804F0CBFA0F4B00221A703BE02F
:101C600014030020540A0020580A0020E0A20008B3
:101C7000000A00204800002000000020C4090020C5
:101C8000F4A2000860030020800600209CA2000847
:101C9000510A0020E0090020500A0020100A00200C
:101CA000BCA20008D0090020D4090020C8A2000866
:101CB0000CA300081B4B1B785A1CD1B2194A117097
:101CC0001A46194B1978194B9954164B1B783F2B10
:101CD00002D9144B00221A70134B1B78212B18D1F8
:101CE000134B00221A60134B07F14C041D460FCD15
:101CF0000FC42B68236007F14C031846FEF728FA3F
:101D000003469AB207F14C014FF0FF330A4802F044
:101D100096FC01220449084802F01CFD00BFB837B8
:101D2000BD46B0BD500A0020580A0020100A00200D
:101D3000540A002024A300081403002080B400AF3C
:101D400072B600BF00BFFDE780B485B000AF154B91
:101D50009B69144A43F001039361124B9B6903F0A2
:101D60000103BB60BB680F4BDB690E4A43F0805335
:101D7000D3610C4BDB6903F080537B607B680A4BBB
:101D80005B68FB60FB6823F0E063FB60FB6843F08B
:101D90000073FB60044AFB68536000BF1437BD4604
:101DA00080BC7047001002400000014080B584B044
:101DB00000AF78607B681B68264A93422CD1264B83
:101DC0009B69254A43F400639361234B9B6903F4A9
:101DD0000063FB60FB6800220021182000F081FBFB
:101DE000182000F09AFB00220021192000F079FB56
:101DF000192000F092FB002200211A2000F071FB54
:101E00001A2000F08AFB002200211B2000F069FB51
:101E10001B2000F082FB18E07B681B68B3F1804F49
:101E200013D10D4BDB690C4A43F00103D3610A4B1C
:101E3000DB6903F00103BB60BB68002200211C20AA
:101E400000F04FFB1C2000F068FB00BF1037BD46C0
:101E500080BD00BF002C01400010024080B588B05A
:101E600000AF786007F1100300221A605A609A6090
:101E7000DA607B681B681F4A934219D11E4B9B692D
:101E80001D4A43F0040393611B4B9B6903F0040359
:101E9000FB60FB684FF480733B6102237B6102238C
:101EA000FB6107F110031946144800F003FC1CE025
:101EB0007B681B68B3F1804F17D10F4B9B690E4AAB
:101EC00043F0040393610C4B9B6903F00403BB6074
:101ED000BB6801233B6102237B610223FB6107F1A5
:101EE00010031946054800F0E5FB00BF2037BD464A
:101EF00080BD00BF002C01400010024000080140DE
:101F000080B588B000AF786007F1100300221A6036
:101F10005A609A60DA607B681B68204A934239D124
:101F20001F4B9B691E4A43F4804393611C4B9B6982
:101F300003F48043FB60FB68194B9B69184A43F02C
:101F400004039361164B9B6903F00403BB60BB68F9
:101F50004FF400733B6102237B610323FB6107F1B4
:101F6000100319460F4800F0A5FB4FF480633B6156
:101F700000237B610023BB6107F110031946094868
:101F800000F098FB00220221252000F0AAFA25206B
:101F900000F0C3FA00BF2037BD4680BD00380140C5
:101FA000001002400008014080B400AF00BFFDE710
:101FB00080B400AF00BFFDE780B400AF00BFFDE715
:101FC00080B400AF00BFFDE780B400AF00BFFDE705
:101FD00080B400AF00BFBD4680BC704780B400AF86
:101FE00000BFBD4680BC704780B400AF00BFBD4697
:101FF00080BC704780B500AF00F080F900BF80BDA5
:1020000080B500AF402000F0F1FC802000F0EEFC35
:102010004FF4807000F0EAFC00BF80BD80B500AFD7
:10202000024801F0ADFC00BF80BD00BF840200206B
:1020300080B500AF024801F0A3FC00BF80BD00BF27
:102040008402002080B500AF024801F099FC00BF77
:1020500080BD00BF8402002080B500AF024801F0BF
:102060008FFC00BF80BD00BF8402002080B500AFA0
:10207000024801F085FC00BF80BD00BFCC020020FB
:1020800080B500AF024802F08BFB00BF80BD00BFEF
:102090001403002080B400AF01231846BD4680BC65
:1020A000704780B582B000AF7860396004F0F2F814
:1020B000034616221A604FF0FF3318460837BD4614
:1020C00080BD80B582B000AF78604FF0FF31786896
:1020D000FFF7E7FF00BFFDE780B586B000AFF8600F
:1020E000B9607A6000237B610AE0AFF300800146AB
:1020F000BB685A1CBA60CAB21A707B6901337B6133
:102100007A697B689A42F0DB7B6818461837BD46CF
:1021100080BD80B586B000AFF860B9607A600023FA
:102120007B6109E0BB685A1CBA601B781846AFF3A4
:1021300000807B6901337B617A697B689A42F1DBBD
:102140007B6818461837BD4680BD80B483B000AFA9
:1021500078604FF0FF3318460C37BD4680BC70479F
:1021600080B483B000AF786039603B684FF40052B0
:102170005A60002318460C37BD4680BC704780B4B7
:1021800083B000AF7860012318460C37BD4680BC91
:10219000704780B485B000AFF860B9607A60002302
:1021A00018461437BD4680BC7047000080B586B025
:1021B00000AF7860144A154BD31A7B617B693B6191
:1021C000134B1B68002B02D1114B124A1A60104BA3
:1021D0001A687B6813443A699A4207D204F05AF8A5
:1021E00003460C221A604FF0FF3309E0084B1B68CE
:1021F000FB60074B1A687B681344054A1360FB6851
:1022000018461837BD4680BD00500020000400006D
:102210005C0A0020B00B002080B400AF00BFBD46B8
:1022200080BC7047FFF7F8FF0B480C490C4A0023AD
:1022300002E0D458C4500433C4188C42F9D3094A7C
:10224000094C002301E013600432A242FBD304F0E6
:1022500027F8FEF7BFFC7047000000206402002052
:10226000C4A7000868020020B00B0020FEE70000B1
:1022700080B500AF084B1B68074A43F0100313609A
:10228000032000F023F90F2000F008F8FFF75CFDB1
:102290000023184680BD00BF0020024080B582B0F8
:1022A00000AF7860124B1A68124B1B7819464FF436
:1022B0007A73B3FBF1F3B2FBF3F3184600F03BF98A
:1022C0000346002B01D001230EE07B680F2B0AD8B8
:1022D000002279684FF0FF3000F003F9064A7B686E
:1022E0001360002300E0012318460837BD4680BD77
:1022F00090000020980000209400002080B400AFDF
:10230000054B1B781A46054B1B681344034A1360A0
:1023100000BFBD4680BC704798000020600A0020C6
:1023200080B400AF024B1B681846BD4680BC7047A6
:10233000600A002080B485B000AF78607B6803F04D
:102340000703FB600C4BDB68BB60BA684FF6FF030A
:102350001340BB60FB681A02BB68134343F0BF63C2
:1023600043F40033BB60044ABB68D36000BF14373A
:10237000BD4680BC704700BF00ED00E080B400AFF8
:10238000044BDB681B0A03F007031846BD4680BCFC
:10239000704700BF00ED00E080B483B000AF03469B
:1023A000FB7197F90730002B0BDBFB7903F01F0261
:1023B000064997F907305B09012000FA02F241F85B
:1023C000232000BF0C37BD4680BC704700E100E011
:1023D00080B483B000AF03463960FB7197F90730D2
:1023E000002B0ADB3B68DAB20C4997F9073012017F
:1023F000D2B20B4483F800230AE03B68DAB2084902
:10240000FB7903F00F03043B1201D2B20B441A769E
:1024100000BF0C37BD4680BC704700BF00E100E044
:1024200000ED00E080B489B000AFF860B9607A6078
:10243000FB6803F00703FB61FB69C3F10703042B8F
:1024400028BF0423BB61FB690433062B02D9FB6957
:10245000033B00E000237B614FF0FF32BB6902FACF
:1024600003F3DA43BB681A407B699A404FF0FF31AF
:102470007B6901FA03F3D9437B680B401343184689
:102480002437BD4680BC704780B582B000AF78600D
:102490007B68013BB3F1807F01D301230FE00A4A3F
:1024A0007B68013B53600F214FF0FF30FFF790FF37
:1024B000054B00229A60044B07221A60002318463D
:1024C0000837BD4680BD00BF10E000E080B582B097
:1024D00000AF78607868FFF72DFF00BF0837BD4672
:1024E00080BD80B586B000AF0346B9607A60FB73EB
:1024F00000237B61FFF742FF78617A68B9687869E9
:10250000FFF790FF024697F90F3011461846FFF784
:102510005FFF00BF1837BD4680BD80B582B000AFF9
:102520000346FB7197F907301846FFF735FF00BFE8
:102530000837BD4680BD80B582B000AF786078684E
:10254000FFF7A2FF034618460837BD4680BD80B49A
:1025500085B000AF78600023FB737B6893F821306F
:10256000DBB2022B08D07B6804229A637B680022CE
:1025700083F82020012320E07B681B681A687B68B1
:102580001B6822F00E021A607B681B681A687B6861
:102590001B6822F001021A607B681A6C7B68DB6B97
:1025A000012101FA02F25A607B68012283F821209E
:1025B0007B68002283F82020FB7B18461437BD4639
:1025C00080BC704780B584B000AF78600023FB7397
:1025D0007B6893F82130DBB2022B05D07B680422A4
:1025E0009A630123FB7351E07B681B681A687B6860
:1025F0001B6822F00E021A607B681B681A687B68F1
:102600001B6822F001021A607B681B68224A934211
:1026100029D07B681B68214A934222D07B681B68C3
:102620001F4A93421AD07B681B681E4A934212D0FD
:102630007B681B681C4A93420AD07B681B681B4A54
:10264000934202D14FF480130EE04FF080730BE001
:102650004FF4803308E04FF4805305E04FF480736B
:1026600002E0102300E00123114A53607B6801223D
:1026700083F821207B68002283F820207B685B6B35
:10268000002B03D07B685B6B78689847FB7B184610
:102690001037BD4680BD00BF080002401C0002404C
:1026A0003000024044000240580002406C000240EA
:1026B0000000024080B48BB000AF78603960002326
:1026C0007B6200233B6269E101227B6A02FA03F329
:1026D000FB613B681B68FA691340BB61BA69FB691F
:1026E0009A4240F058813B685B689A4A93425ED0B8
:1026F000984A934275D8984A934258D0964A934242
:102700006FD8964A934252D0944A934269D8944AD9
:1027100093424CD0924A934263D8924A934246D015
:10272000904A93425DD8122B2AD8122B59D801A275
:1027300052F823F0AF270008892700089B270008DC
:10274000DD270008E3270008E3270008E327000847
:10275000E3270008E3270008E3270008E327000831
:10276000E3270008E3270008E3270008E327000821
:10277000E3270008E327000891270008A5270008A1
:10278000794A934213D02CE03B68DB683B6229E036
:102790003B68DB6804333B6224E03B68DB6808335A
:1027A0003B621FE03B68DB680C333B621AE03B682E
:1027B0009B68002B02D104233B6213E03B689B68BB
:1027C000012B05D108233B627B68FA691A6109E095
:1027D00008233B627B68FA695A6103E000233B628D
:1027E00000E000BFBB69FF2B01D87B6801E07B687C
:1027F00004337B61BB69FF2B02D87B6A9B0002E03C
:102800007B6A083B9B003B617B691A680F213B692F
:1028100001FA03F3DB431A40396A3B6901FA03F317
:102820001A437B691A603B685B6803F08053002B96
:1028300000F0B1804D4B9B694C4A43F0010393611A
:102840004A4B9B6903F00103BB60BB68484A7B6A43
:102850009B08023352F82330FB607B6A03F00303CA
:102860009B000F2202FA03F3DB43FA681340FB607C
:102870007B68404A934213D07B683F4A93420DD015
:102880007B683E4A934207D07B683D4A934201D120
:10289000032306E0042304E0022302E0012300E016
:1028A00000237A6A02F0030292009340FA6813430D
:1028B000FB602F497B6A9B080233FA6841F82320AA
:1028C0003B685B6803F48013002B06D02D4B9A689D
:1028D0002C49BB6913438B6006E02A4B9A68BB699D
:1028E000DB43284913408B603B685B6803F40013AB
:1028F000002B06D0234BDA682249BB691343CB6017
:1029000006E0204BDA68BB69DB431E491340CB600D
:102910003B685B6803F40033002B06D0194B5A6800
:102920001849BB6913434B6006E0164B5A68BB69F4
:10293000DB43144913404B603B685B6803F480330E
:10294000002B21D00F4B1A680E49BB6913430B6053
:1029500021E000BF00003210000031100000221002
:1029600000002110000012100000111000100240A1
:102970000000014000080140000C0140001001402F
:1029800000140140000401400B4B1A68BB69DB4393
:10299000094913400B607B6A01337B623B681A680C
:1029A0007B6A22FA03F3002B7FF48EAE00BF00BFD8
:1029B0002C37BD4680BC70470004014080B483B012
:1029C00000AF78600B467B8013467B707B78002BD2
:1029D00003D07A887B681A6103E07B881A047B68DD
:1029E0001A6100BF0C37BD4680BC704780B582B00D
:1029F00000AF0346FB80084B5A69FB881340002B4D
:102A000006D0054AFB885361FB881846FEF7ACFFE9
:102A100000BF0837BD4680BD0004014080B586B0C8
:102A200000AF78607B68002B01D1012372E27B68E4
:102A30001B6803F00103002B00F08780924B5B685A
:102A400003F00C03042B0CD08F4B5B6803F00C03DA
:102A5000082B12D18C4B5B6803F48033B3F5803FB5
:102A60000BD1894B1B6803F40033002B6CD07B68BF
:102A70005B68002B68D101234CE27B685B68B3F58F
:102A8000803F06D1804B1B687F4A43F4803313603C
:102A90002EE07B685B68002B0CD17B4B1B687A4A6D
:102AA00023F480331360784B1B68774A23F4802328
:102AB00013601DE07B685B68B3F5A02F0CD1724BEF
:102AC0001B68714A43F4802313606F4B1B686E4A86
:102AD00043F4803313600BE06B4B1B686A4A23F4AA
:102AE00080331360684B1B68674A23F480231360AC
:102AF0007B685B68002B13D0FFF712FC386108E09D
:102B0000FFF70EFC02463B69D31A642B01D903235D
:102B100000E25D4B1B6803F40033002BF0D014E09F
:102B2000FFF7FEFB386108E0FFF7FAFB02463B695E
:102B3000D31A642B01D90323ECE1534B1B6803F434
:102B40000033002BF0D100E000BF7B681B6803F06E
:102B50000203002B63D04C4B5B6803F00C03002B8B
:102B60000BD0494B5B6803F00C03082B1CD1464B80
:102B70005B6803F48033002B16D1434B1B6803F0D2
:102B80000203002B05D07B681B69012B01D00123B8
:102B9000C0E13D4B1B6823F0F8027B685B69DB00FA
:102BA000394913430B603AE07B681B69002B20D046
:102BB000364B01221A60FFF7B3FB386108E0FFF7DC
:102BC000AFFB02463B69D31A022B01D90323A1E1D3
:102BD0002D4B1B6803F00203002BF0D02A4B1B681F
:102BE00023F0F8027B685B69DB00274913430B6025
:102BF00015E0264B00221A60FFF792FB386108E0CF
:102C0000FFF78EFB02463B69D31A022B01D903233F
:102C100080E11D4B1B6803F00203002BF0D17B68A1
:102C20001B6803F00803002B3AD07B689B69002BDC
:102C300019D0174B01221A60FFF772FB386108E0C8
:102C4000FFF76EFB02463B69D31A022B01D903231F
:102C500060E10D4B5B6A03F00203002BF0D0012012
:102C600000F0CEFA1CE00A4B00221A60FFF758FB76
:102C700038610FE0FFF754FB02463B69D31A022B81
:102C800008D9032346E100BF001002400000424281
:102C900080044242924B5B6A03F00203002BE9D1AD
:102CA0007B681B6803F00403002B00F0A680002360
:102CB000FB758B4BDB6903F08053002B0DD1884BE8
:102CC000DB69874A43F08053D361854BDB6903F0AE
:102CD0008053BB60BB680123FB75824B1B6803F408
:102CE0008073002B18D17F4B1B687E4A43F480739E
:102CF0001360FFF715FB386108E0FFF711FB024690
:102D00003B69D31A642B01D9032303E1754B1B687C
:102D100003F48073002BF0D07B68DB68012B06D1B5
:102D20006F4B1B6A6E4A43F0010313622DE07B6810
:102D3000DB68002B0CD16A4B1B6A694A23F0010344
:102D40001362674B1B6A664A23F0040313621CE09C
:102D50007B68DB68052B0CD1614B1B6A604A43F032
:102D6000040313625E4B1B6A5D4A43F00103136266
:102D70000BE05B4B1B6A5A4A23F001031362584B6A
:102D80001B6A574A23F0040313627B68DB68002B3D
:102D900015D0FFF7C5FA38610AE0FFF7C1FA02461D
:102DA0003B69D31A41F28832934201D90323B1E03F
:102DB0004B4B1B6A03F00203002BEED014E0FFF72D
:102DC000AFFA38610AE0FFF7ABFA02463B69D31A63
:102DD00041F28832934201D903239BE0404B1B6AA6
:102DE00003F00203002BEED1FB7D012B05D13C4B00
:102DF000DB693B4A23F08053D3617B68DB69002B9E
:102E000000F08780364B5B6803F00C03082B61D021
:102E10007B68DB69022B46D1334B00221A60FFF737
:102E20007FFA386108E0FFF77BFA02463B69D31A64
:102E3000022B01D903236DE0294B1B6803F00073BB
:102E4000002BF0D17B681B6AB3F5803F08D1244B7F
:102E50005B6823F400327B689B68214913434B6015
:102E60001F4B5B6823F474127B68196A7B685B6A8A
:102E70000B431B4913434B601B4B01221A60FFF7A6
:102E80004FFA386108E0FFF74BFA02463B69D31A64
:102E9000022B01D903233DE0114B1B6803F00073A3
:102EA000002BF0D035E0104B00221A60FFF738FA03
:102EB000386108E0FFF734FA02463B69D31A022B67
:102EC00001D9032326E0064B1B6803F00073002B97
:102ED000F0D11EE07B68DB69012B07D1012319E0EB
:102EE0000010024000700040600042420B4B5B68E3
:102EF000FB60FB6803F480327B681B6A9A4206D150
:102F0000FB6803F470127B685B6A9A4201D001236C
:102F100000E0002318461837BD4680BD001002406F
:102F200080B584B000AF786039607B68002B01D138
:102F30000123D0E06A4B1B6803F007033A689A420A
:102F400010D9674B1B6823F0070265493B681343A0
:102F50000B60634B1B6803F007033A689A4201D089
:102F60000123B8E07B681B6803F00203002B20D02C
:102F70007B681B6803F00403002B05D0594B5B688A
:102F8000584A43F4E06353607B681B6803F008030E
:102F9000002B05D0534B5B68524A43F46053536097
:102FA000504B5B6823F0F0027B689B684D491343EC
:102FB0004B607B681B6803F00103002B40D07B68EB
:102FC0005B68012B07D1474B1B6803F40033002BD0
:102FD00015D101237FE07B685B68022B07D1414B51
:102FE0001B6803F00073002B09D1012373E03D4BF4
:102FF0001B6803F00203002B01D101236BE0394B66
:103000005B6823F003027B685B68364913434B60BF
:10301000FFF786F9F8600AE0FFF782F90246FB68DD
:10302000D31A41F28832934201D9032353E02D4B46
:103030005B6803F00C027B685B689B009A42EBD1F3
:10304000274B1B6803F007033A689A4210D2244BBF
:103050001B6823F0070222493B6813430B60204B97
:103060001B6803F007033A689A4201D0012332E05B
:103070007B681B6803F00403002B08D0194B5B68C6
:1030800023F4E0627B68DB68164913434B607B687E
:103090001B6803F00803002B09D0124B5B6823F474
:1030A00060527B681B69DB000E4913434B6000F0E4
:1030B00021F802460B4B5B681B0903F00F030A491A
:1030C000CB5C22FA03F3094A1360094B1B681846CC
:1030D000FFF7E4F8002318461037BD4680BD00BF57
:1030E000002002400010024044A30008900000208D
:1030F0009400002080B487B000AF0023FB60002361
:10310000BB6000237B6100237B6000233B611E4B7F
:103110005B68FB60FB6803F00C03042B02D0082BF8
:1031200003D027E0194B3B6127E0FB689B0C03F0C1
:103130000F03174AD35C7B60FB6803F48033002BDA
:1031400010D0114B5B685B0C03F00103114AD35C98
:10315000BB607B680D4A03FB02F2BB68B2FBF3F372
:103160007B6104E07B680C4A02FB03F37B617B69B3
:103170003B6102E0054B3B6100BF3B6918461C37D1
:10318000BD4680BC704700BF0010024000127A00AC
:103190005CA300086CA3000800093D0080B400AFE8
:1031A000024B1B681846BD4680BC7047900000204B
:1031B00080B500AFFFF7F2FF0246054B5B681B0AC4
:1031C00003F007030349CB5C22FA03F3184680BDE2
:1031D0000010024054A3000880B500AFFFF7DEFFE7
:1031E0000246054B5B68DB0A03F007030349CB5C2F
:1031F00022FA03F3184680BD0010024054A30008D1
:1032000080B485B000AF78600A4B1B680A4AA2FB05
:1032100003235B0A7A6802FB03F3FB6000BFFB68D1
:103220005A1EFA60002BF9D100BF00BF1437BD460B
:1032300080BC704790000020D34D621080B582B0F2
:1032400000AF78607B68002B01D1012341E07B68EF
:1032500093F83D30DBB2002B06D17B68002283F867
:103260003C207868FEF7A2FD7B68022283F83D20AF
:103270007B681A687B6804331946104600F01EFE0E
:103280007B68012283F846207B68012283F83E2078
:103290007B68012283F83F207B68012283F840206D
:1032A0007B68012283F841207B68012283F8422059
:1032B0007B68012283F843207B68012283F8442045
:1032C0007B68012283F845207B68012283F83D203A
:1032D000002318460837BD4680BD000080B485B085
:1032E00000AF78607B6893F83D30DBB2012B01D0F2
:1032F00001233AE07B68022283F83D207B681B684B
:10330000DA687B681B6842F00102DA607B681B6840
:10331000184A93420ED07B681B68B3F1804F09D0E6
:103320007B681B68144A934204D07B681B68134A6D
:10333000934211D17B681B689B6803F00703FB6015
:10334000FB68062B10D07B681B681A687B681B68BB
:1033500042F001021A6007E07B681B681A687B680C
:103360001B6842F001021A60002318461437BD465C
:1033700080BC7047002C0140000400400008004061
:1033800080B582B000AF78607B68002B01D101234B
:1033900041E07B6893F83D30DBB2002B06D17B68BF
:1033A000002283F83C20786800F039F87B6802221C
:1033B00083F83D207B681A687B6804331946104601
:1033C00000F07CFD7B68012283F846207B680122A7
:1033D00083F83E207B68012283F83F207B6801222E
:1033E00083F840207B68012283F841207B6801221A
:1033F00083F842207B68012283F843207B68012206
:1034000083F844207B68012283F845207B680122F1
:1034100083F83D20002318460837BD4680BD80B4A0
:1034200083B000AF786000BF0C37BD4680BC7047EA
:1034300080B584B000AF786039603B68002B09D15B
:103440007B6893F83E30DBB2012B14BF01230023CD
:10345000DBB222E03B68042B09D17B6893F83F3054
:10346000DBB2012B14BF01230023DBB215E03B6864
:10347000082B09D17B6893F84030DBB2012B14BFD5
:1034800001230023DBB208E07B6893F84130DBB214
:10349000012B14BF01230023DBB2002B01D0012339
:1034A0005EE03B68002B04D17B68022283F83E205B
:1034B00013E03B68042B04D17B68022283F83F2091
:1034C0000BE03B68082B04D17B68022283F8402084
:1034D00003E07B68022283F841207B681B6801229D
:1034E0003968184600F076FF7B681B681E4A9342D5
:1034F00007D17B681B685A6C7B681B6842F40042EA
:103500005A647B681B68184A93420ED07B681B681C
:10351000B3F1804F09D07B681B68144A934204D0F2
:103520007B681B68124A934211D17B681B689B68B9
:1035300003F00703FB60FB68062B10D07B681B6859
:103540001A687B681B6842F001021A6007E07B681A
:103550001B681A687B681B6842F001021A6000232E
:1035600018461037BD4680BD002C014000040040C5
:103570000008004080B582B000AF786039607B6899
:103580001B6800223968184600F024FF7B681B681E
:10359000294A934217D17B681B681A6A41F21113BA
:1035A0001340002B0FD17B681B681A6A40F244431A
:1035B0001340002B07D17B681B685A6C7B681B6823
:1035C00022F400425A647B681B681A6A41F21113A4
:1035D0001340002B0FD17B681B681A6A40F24443EA
:1035E0001340002B07D17B681B681A687B681B6837
:1035F00022F001021A603B68002B04D17B68012293
:1036000083F83E2013E03B68042B04D17B68012241
:1036100083F83F200BE03B68082B04D17B68012234
:1036200083F8402003E07B68012283F841200023D7
:1036300018460837BD4680BD002C014080B584B0D7
:1036400000AF786039600023FB733B68002B09D121
:103650007B6893F83E30DBB2012B14BF01230023BB
:10366000DBB222E03B68042B09D17B6893F83F3042
:10367000DBB2012B14BF01230023DBB215E03B6852
:10368000082B09D17B6893F84030DBB2012B14BFC3
:1036900001230023DBB208E07B6893F84130DBB202
:1036A000012B14BF01230023DBB2002B01D0012327
:1036B000A9E03B68002B04D17B68022283F83E20FE
:1036C00013E03B68042B04D17B68022283F83F207F
:1036D0000BE03B68082B04D17B68022283F8402072
:1036E00003E07B68022283F841203B680C2B41D821
:1036F00001A252F823F000BF2D37000875370008EB
:1037000075370008753700083F370008753700081F
:1037100075370008753700085137000875370008FD
:103720007537000875370008633700087B681B6829
:10373000DA687B681B6842F00202DA601DE07B6891
:103740001B68DA687B681B6842F00402DA6014E0E8
:103750007B681B68DA687B681B6842F00802DA60E5
:103760000BE07B681B68DA687B681B6842F010021C
:10377000DA6002E00123FB7300BFFB7B002B41D129
:103780007B681B6801223968184600F023FE7B68BD
:103790001B681F4A934207D17B681B685A6C7B6881
:1037A0001B6842F400425A647B681B68184A9342C3
:1037B0000ED07B681B68B3F1804F09D07B681B6813
:1037C000144A934204D07B681B68134A934211D178
:1037D0007B681B689B6803F00703BB60BB68062B14
:1037E00010D07B681B681A687B681B6842F0010276
:1037F0001A6007E07B681B681A687B681B6842F0E8
:1038000001021A60FB7B18461037BD4680BD00BF21
:10381000002C0140000400400008004080B584B046
:1038200000AF786039600023FB733B680C2B41D8F4
:1038300001A252F823F000BF6D380008B538000827
:10384000B5380008B53800087F380008B5380008DA
:10385000B5380008B538000891380008B5380008B8
:10386000B5380008B5380008A33800087B681B6825
:10387000DA687B681B6822F00202DA601DE07B6870
:103880001B68DA687B681B6822F00402DA6014E0C7
:103890007B681B68DA687B681B6822F00802DA60C4
:1038A0000BE07B681B68DA687B681B6822F01002FB
:1038B000DA6002E00123FB7300BFFB7B002B57D1D2
:1038C0007B681B6800223968184600F083FD7B681E
:1038D0001B682A4A934217D17B681B681A6A41F217
:1038E00011131340002B0FD17B681B681A6A40F23A
:1038F00044431340002B07D17B681B685A6C7B68DC
:103900001B6822F400425A647B681B681A6A41F201
:1039100011131340002B0FD17B681B681A6A40F209
:1039200044431340002B07D17B681B681A687B68EF
:103930001B6822F001021A603B68002B04D17B68EF
:10394000012283F83E2013E03B68042B04D17B68FE
:10395000012283F83F200BE03B68082B04D17B68F1
:10396000012283F8402003E07B68012283F8412094
:10397000FB7B18461037BD4680BD00BF002C0140C0
:1039800080B584B000AF78607B681B68DB68FB6043
:103990007B681B681B69BB60BB6803F00203002BDC
:1039A00020D0FB6803F00203002B1BD07B681B6850
:1039B0006FF002021A617B6801221A777B681B682C
:1039C0009B6903F00303002B03D0786800F063FACF
:1039D00005E0786800F056FA7868FDF745FE7B68E8
:1039E00000221A77BB6803F00403002B20D0FB6889
:1039F00003F00403002B1BD07B681B686FF00402EC
:103A00001A617B6802221A777B681B689B6903F442
:103A10004073002B03D0786800F03DFA05E0786829
:103A200000F030FA7868FDF71FFE7B6800221A77F5
:103A3000BB6803F00803002B20D0FB6803F00803E9
:103A4000002B1BD07B681B686FF008021A617B6833
:103A500004221A777B681B68DB6903F00303002BE1
:103A600003D0786800F017FA05E0786800F00AFAE9
:103A70007868FDF7F9FD7B6800221A77BB6803F0D0
:103A80001003002B20D0FB6803F01003002B1BD089
:103A90007B681B686FF010021A617B6808221A7736
:103AA0007B681B68DB6903F44073002B03D07868E4
:103AB00000F0F1F905E0786800F0E4F97868FDF7C6
:103AC000D3FD7B6800221A77BB6803F00103002B4B
:103AD0000CD0FB6803F00103002B07D07B681B6848
:103AE0006FF001021A61786800F0C3F9BB6803F057
:103AF0008003002B0CD0FB6803F08003002B07D061
:103B00007B681B686FF080021A61786800F03EFDE8
:103B1000BB6803F04003002B0CD0FB6803F04003AC
:103B2000002B07D07B681B686FF040021A61786831
:103B300000F0BAF9BB6803F02003002B0CD0FB683F
:103B400003F02003002B07D07B681B686FF0200276
:103B50001A61786800F011FD00BF1037BD4680BDC6
:103B600080B586B000AFF860B9607A600023FB755D
:103B7000FB6893F83C30012B01D10223AEE0FB68D7
:103B8000012283F83C207B680C2B00F29F8001A26D
:103B900052F823F0C93B0008CD3C0008CD3C00089A
:103BA000CD3C0008093C0008CD3C0008CD3C000895
:103BB000CD3C00084B3C0008CD3C0008CD3C000843
:103BC000CD3C00088B3C0008FB681B68B9681846B0
:103BD00000F0E2F9FB681B689A69FB681B6842F019
:103BE00008029A61FB681B689A69FB681B6822F0EF
:103BF00004029A61FB681B689969BB681A69FB68D3
:103C00001B680A439A6164E0FB681B68B968184640
:103C100000F028FAFB681B689A69FB681B6842F48D
:103C200000629A61FB681B689A69FB681B6822F452
:103C300080629A61FB681B689969BB681B691A02FC
:103C4000FB681B680A439A6143E0FB681B68B9681C
:103C5000184600F071FAFB681B68DA69FB681B689C
:103C600042F00802DA61FB681B68DA69FB681B68CE
:103C700022F00402DA61FB681B68D969BB681A6923
:103C8000FB681B680A43DA6123E0FB681B68B968BC
:103C9000184600F0BBFAFB681B68DA69FB681B6812
:103CA00042F40062DA61FB681B68DA69FB681B6832
:103CB00022F48062DA61FB681B68D969BB681B6902
:103CC0001A02FB681B680A43DA6102E00123FB75F4
:103CD00000BFFB68002283F83C20FB7D18461837A4
:103CE000BD4680BD80B584B000AF786039600023E8
:103CF000FB737B6893F83C30012B01D10223B4E0C5
:103D00007B68012283F83C207B68022283F83D20F7
:103D10007B681B689B68BB60BB6823F07703BB6054
:103D2000BB6823F47F43BB607B681B68BA689A60FA
:103D30003B681B68B3F5005F3ED0B3F5005F00F24F
:103D40008780B3F5805F00F08680B3F5805F7FD811
:103D5000702B1AD0702B7BD8602B50D0602B77D86B
:103D6000502B3CD0502B73D8402B58D0402B6FD8C1
:103D7000302B64D0302B6BD8202B60D0202B67D811
:103D8000002B5CD0102B5AD062E07B6818683B682F
:103D900099683B685A683B68DB6800F0FCFA7B680E
:103DA0001B689B68BB60BB6843F07703BB607B68A4
:103DB0001B68BA689A604FE07B6818683B6899682E
:103DC0003B685A683B68DB6800F0E5FA7B681B6873
:103DD0009A687B681B6842F480429A603CE07B688A
:103DE00018683B6859683B68DB681A4600F05CFA63
:103DF0007B681B685021184600F0B3FA2CE07B6802
:103E000018683B6859683B68DB681A4600F07AFA24
:103E10007B681B686021184600F0A3FA1CE07B68F1
:103E200018683B6859683B68DB681A4600F03CFA42
:103E30007B681B684021184600F093FA0CE07B6811
:103E40001A683B681B681946104600F08AFA03E0BE
:103E50000123FB7300E000BF7B68012283F83D2053
:103E60007B68002283F83C20FB7B18461037BD4658
:103E700080BD80B483B000AF786000BF0C37BD4612
:103E800080BC704780B483B000AF786000BF0C374F
:103E9000BD4680BC704780B483B000AF786000BF7F
:103EA0000C37BD4680BC704780B483B000AF7860EB
:103EB00000BF0C37BD4680BC7047000080B485B0A1
:103EC00000AF786039607B681B68FB607B682F4AB5
:103ED00093420BD07B68B3F1804F07D07B682C4AAC
:103EE000934203D07B682B4A934208D1FB6823F0AE
:103EF0007003FB603B685B68FA681343FB607B6898
:103F0000224A93420BD07B68B3F1804F07D07B6885
:103F10001F4A934203D07B681E4A934208D1FB6834
:103F200023F44073FB603B68DB68FA681343FB6073
:103F3000FB6823F080023B685B691343FB607B688E
:103F4000FA681A603B689A687B68DA623B681A68AC
:103F50007B689A627B680D4A934203D13B681A6979
:103F60007B681A637B6801225A617B681B6903F0D6
:103F70000103002B05D07B681B6923F001027B68DD
:103F80001A6100BF1437BD4680BC7047002C014049
:103F9000000400400008004080B487B000AF7860A3
:103FA00039607B681B6A7B617B681B6A23F00102B6
:103FB0007B681A627B685B683B617B689B69FB601E
:103FC000FB6823F07003FB60FB6823F00303FB60D6
:103FD0003B681B68FA681343FB607B6923F00203AC
:103FE0007B613B689B687A6913437B617B681C4AF1
:103FF00093420CD17B6923F008037B613B68DB684B
:104000007A6913437B617B6923F004037B617B68DE
:10401000134A934211D13B6923F480733B613B699E
:1040200023F400733B613B685B693A6913433B616E
:104030003B689B693A6913433B617B683A695A6004
:104040007B68FA689A613B685A687B685A637B6848
:104050007A691A6200BF1C37BD4680BC704700BF3A
:10406000002C014080B487B000AF786039607B6875
:104070001B6A7B617B681B6A23F010027B681A62F3
:104080007B685B683B617B689B69FB60FB6823F432
:10409000E043FB60FB6823F44073FB603B681B68F4
:1040A0001B02FA681343FB607B6923F020037B61EA
:1040B0003B689B681B017A6913437B617B681D4ADF
:1040C00093420DD17B6923F080037B613B68DB6801
:1040D0001B017A6913437B617B6923F040037B6199
:1040E0007B68144A934213D13B6923F480633B619C
:1040F0003B6923F400633B613B685B699B003A6961
:1041000013433B613B689B699B003A6913433B61E6
:104110007B683A695A607B68FA689A613B685A68BA
:104120007B689A637B687A691A6200BF1C37BD4658
:1041300080BC7047002C014080B487B000AF78602D
:1041400039607B681B6A7B617B681B6A23F4807221
:104150007B681A627B685B683B617B68DB69FB603C
:10416000FB6823F07003FB60FB6823F00303FB6034
:104170003B681B68FA681343FB607B6923F4007398
:104180007B613B689B681B027A6913437B617B6898
:104190001D4A93420DD17B6923F400637B613B6828
:1041A000DB681B027A6913437B617B6923F48063BC
:1041B0007B617B68144A934213D13B6923F480539B
:1041C0003B613B6923F400533B613B685B691B0126
:1041D0003A6913433B613B689B691B013A6913438E
:1041E0003B617B683A695A607B68FA68DA613B68D0
:1041F0005A687B68DA637B687A691A6200BF1C3789
:10420000BD4680BC704700BF002C014080B487B021
:1042100000AF786039607B681B6A3B617B681B6A12
:1042200023F480527B681A627B685B687B617B68E1
:10423000DB69FB60FB6823F4E043FB60FB6823F46D
:104240004073FB603B681B681B02FA681343FB600A
:104250003B6923F400533B613B689B681B033A694D
:1042600013433B617B680F4A934209D17B6923F476
:1042700080437B613B685B699B017A6913437B6187
:104280007B687A695A607B68FA68DA613B685A68C9
:104290007B681A647B683A691A6200BF1C37BD46A6
:1042A00080BC7047002C014080B487B000AFF8603C
:1042B000B9607A60FB681B6A7B61FB681B6A23F04C
:1042C0000102FB681A62FB689B693B613B6923F052
:1042D000F0033B617B681B013A6913433B617B69D7
:1042E00023F00A037B617A69BB6813437B61FB6837
:1042F0003A699A61FB687A691A6200BF1C37BD4649
:1043000080BC704780B487B000AFF860B9607A6055
:10431000FB681B6A7B61FB681B6A23F01002FB6869
:104320001A62FB689B693B613B6923F470433B6104
:104330007B681B033A6913433B617B6923F0A0034D
:104340007B61BB681B017A6913437B61FB683A6937
:104350009A61FB687A691A6200BF1C37BD4680BC4F
:10436000704780B485B000AF786039607B689B6827
:10437000FB60FB6823F07003FB603A68FB68134343
:1043800043F00703FB607B68FA689A6000BF14374C
:10439000BD4680BC704780B487B000AFF860B9609C
:1043A0007A603B60FB689B687B617B6923F47F4399
:1043B0007B613B681A027B681A43BB6813437A69C6
:1043C00013437B61FB687A699A6000BF1C37BD4666
:1043D00080BC704780B487B000AFF860B9607A6085
:1043E000BB6803F01F03012202FA03F37B61FB6841
:1043F0001A6A7B69DB431A40FB681A62FB681A6A17
:10440000BB6803F01F03796801FA03F31A43FB68E2
:104410001A6200BF1C37BD4680BC704780B485B0AF
:1044200000AF786039607B6893F83C30012B01D194
:10443000022346E07B68012283F83C207B6802224D
:1044400083F83D207B681B685B68FB607B681B68AA
:104450009B68BB60FB6823F07003FB603B681B68D4
:10446000FA681343FB607B681B68FA685A607B68D4
:104470001B68164A93420ED07B681B68B3F1804FCD
:1044800009D07B681B68124A934204D07B681B6882
:10449000104A93420CD1BB6823F08003BB603B6899
:1044A0005B68BA681343BB607B681B68BA689A6034
:1044B0007B68012283F83D207B68002283F83C2042
:1044C000002318461437BD4680BC7047002C0140BD
:1044D000000400400008004080B485B000AF786060
:1044E00039600023FB607B6893F83C30012B01D1DD
:1044F00002233DE07B68012283F83C20FB6823F027
:10450000FF023B68DB681343FB60FB6823F44072E7
:104510003B689B681343FB60FB6823F480623B6845
:104520005B681343FB60FB6823F400623B681B6815
:104530001343FB60FB6823F480523B681B69134301
:10454000FB60FB6823F400523B685B691343FB602C
:10455000FB6823F480423B68DB691343FB607B68A4
:104560001B68FA685A647B68002283F83C200023A9
:1045700018461437BD4680BC704780B483B000AF86
:10458000786000BF0C37BD4680BC704780B483B0F4
:1045900000AF786000BF0C37BD4680BC704780B567
:1045A00082B000AF78607B68002B01D1012342E02C
:1045B0007B6893F84130DBB2002B06D17B68002288
:1045C00083F840207868FDF79BFC7B68242283F801
:1045D00041207B681B68DA687B681B6822F4005204
:1045E000DA60786800F0B8FD7B681B681A697B6840
:1045F0001B6822F490421A617B681B685A697B68C9
:104600001B6822F02A025A617B681B68DA687B68A3
:104610001B6842F40052DA607B6800225A647B68AF
:10462000202283F841207B68202283F842207B6887
:1046300000225A63002318460837BD4680BD80B566
:104640008AB002AFF860B9603B601346FB8000237C
:104650007B61FB6893F84130DBB2202B75D1BB68DE
:10466000002B02D0FB88002B01D101236EE0FB68F8
:1046700000225A64FB68212283F84120FDF750FE96
:104680007861FB68FA889A84FB68FA88DA84FB68A8
:104690009B68B3F5805F08D1FB681B69002B04D1D0
:1046A0000023FB61BB68BB6103E0BB68FB610023C7
:1046B000BB612EE03B6800937B6900228021F86893
:1046C00000F01DFB0346002B05D0FB68202283F879
:1046D000412003233AE0FB69002B0BD1BB691B8807
:1046E0001A46FB681B68C2F308025A60BB690233B2
:1046F000BB6107E0FB691A78FB681B685A60FB69BD
:104700000133FB61FB68DB8C9BB2013B9AB2FB6817
:10471000DA84FB68DB8C9BB2002BCBD13B68009327
:104720007B6900224021F86800F0E9FA0346002B7B
:1047300005D0FB68202283F84120032306E0FB68B4
:10474000202283F84120002300E00223184620376E
:10475000BD4680BD80B584B000AFF860B960134637
:10476000FB80FB6893F84230DBB2202B12D1BB6890
:10477000002B02D0FB88002B01D101230BE0FB684A
:1047800000221A63FB881A46B968F86800F010FB2B
:10479000034600E0022318461037BD4680BD0000E6
:1047A00080B5BAB000AF78607B681B681B68C7F83B
:1047B000E4307B681B68DB68C7F8E0307B681B6807
:1047C0005B69C7F8DC300023C7F8D8300023C7F88E
:1047D000D430D7F8E43003F00F03C7F8D830D7F857
:1047E000D830002B0FD1D7F8E43003F02003002B92
:1047F00009D0D7F8E03003F02003002B03D078680D
:1048000000F0ECFB5BE2D7F8D830002B00F0DE8044
:10481000D7F8DC3003F00103002B06D1D7F8E030E5
:1048200003F49073002B00F0D180D7F8E43003F04C
:104830000103002B0BD0D7F8E03003F48073002B7A
:1048400005D07B685B6C43F001027B685A64D7F843
:10485000E43003F00403002B0BD0D7F8DC3003F076
:104860000103002B05D07B685B6C43F002027B6880
:104870005A64D7F8E43003F00203002B0BD0D7F8CA
:10488000DC3003F00103002B05D07B685B6C43F048
:1048900004027B685A64D7F8E43003F00803002B65
:1048A00011D0D7F8E03003F02003002B05D1D7F862
:1048B000DC3003F00103002B05D07B685B6C43F018
:1048C00008027B685A647B685B6C002B00F0F28105
:1048D000D7F8E43003F02003002B08D0D7F8E030FD
:1048E00003F02003002B02D0786800F077FB7B6890
:1048F0001B685B6903F04003002B14BF01230023F6
:10490000DBB2C7F8D4307B685B6C03F00803002B84
:1049100003D1D7F8D430002B4FD0786800F081FA5B
:104920007B681B685B6903F04003002B41D07B6808
:104930001B681433C7F89C30D7F89C3053E8003F0D
:10494000C7F89830D7F8983023F04003C7F8D03034
:104950007B681B681433D7F8D020C7F8A820C7F8A5
:10496000A430D7F8A410D7F8A82041E80023C7F84E
:10497000A030D7F8A030002BD9D17B68DB6B002B9F
:1049800013D07B68DB6B7E4A5A637B68DB6B18460F
:10499000FDF718FE0346002B16D07B68DB6B5B6BC4
:1049A0007A68D26B104698470EE0786800F093F969
:1049B0000AE0786800F08FF906E0786800F08BF97B
:1049C0007B6800225A6475E100BF73E17B681B6B52
:1049D000012B40F04F81D7F8E43003F01003002B97
:1049E00000F04881D7F8E03003F01003002B00F00E
:1049F00041810023BB607B681B681B68BB607B68D0
:104A00001B685B68BB60BB687B681B685B6903F005
:104A10004003002B00F0B6807B68DB6B1B685B6893
:104A2000A7F8BE30B7F8BE30002B00F045817B6898
:104A30009B8DB7F8BE209A4280F03E817B68B7F824
:104A4000BE20DA857B68DB6B9B69202B00F08880B9
:104A50007B681B680C33C7F88830D7F8883053E878
:104A6000003FC7F88430D7F8843023F48073C7F848
:104A7000B8307B681B680C33D7F8B820C7F894208F
:104A8000C7F89030D7F89010D7F8942041E8002369
:104A9000C7F88C30D7F88C30002BD9D17B681B68D5
:104AA00014337B677B6F53E8003F3B673B6F23F01A
:104AB0000103C7F8B4307B681B681433D7F8B420FF
:104AC000C7F88020FB67F96FD7F8802041E8002302
:104AD000BB67BB6F002BE1D17B681B6814333B665F
:104AE0003B6E53E8003FFB65FB6D23F04003C7F8C6
:104AF000B0307B681B681433D7F8B020FA66BB6609
:104B0000B96EFA6E41E800237B667B6E002BE3D121
:104B10007B68202283F842207B6800221A637B682E
:104B20001B680C33FB64FB6C53E8003FBB64BB6C3D
:104B300023F01003C7F8AC307B681B680C33D7F840
:104B4000AC20BA657B65796DBA6D41E800233B65A1
:104B50003B6D002BE3D17B68DB6B1846FDF7F7FC60
:104B60007B6802225A637B689A8D7B68DB8D9BB2DF
:104B7000D31A9BB21946786800F0B6F89CE000BFE3
:104B8000E74E00087B689A8D7B68DB8D9BB2D31A59
:104B9000A7F8CE307B68DB8D9BB2002B00F08E80B7
:104BA000B7F8CE30002B00F089807B681B680C338F
:104BB000BB63BB6B53E8003F7B637B6B23F4907359
:104BC000C7F8C8307B681B680C33D7F8C8207A64F4
:104BD0003B64396C7A6C41E80023FB63FB6B002B70
:104BE000E3D17B681B6814337B627B6A53E8003F28
:104BF0003B623B6A23F00103C7F8C4307B681B6843
:104C00001433D7F8C4203A63FB62F96A3A6B41E87F
:104C10000023BB62BB6A002BE3D17B68202283F8B0
:104C200042207B6800221A637B681B680C333B615F
:104C30003B6953E8003FFB60FB6823F01003C7F8B3
:104C4000C0307B681B680C33D7F8C020FA61BB61A9
:104C5000B969FA6941E800237B617B69002BE3D1E4
:104C60007B6802225A63B7F8CE301946786800F0A4
:104C70003BF823E0D7F8E43003F08003002B09D0A1
:104C8000D7F8E03003F08003002B03D0786800F001
:104C90003EF914E0D7F8E43003F04003002B0ED0C7
:104CA000D7F8E03003F04003002B08D0786800F01C
:104CB0007DF904E000BF02E000BF00E000BFE8377C
:104CC000BD4680BD80B483B000AF786000BF0C37B4
:104CD000BD4680BC704780B483B000AF786000BF31
:104CE0000C37BD4680BC704780B483B000AF78609D
:104CF0000B467B8000BF0C37BD4680BC704780B53B
:104D000086B000AFF860B9603B601346FB713BE0D2
:104D10003B6AB3F1FF3F37D0FDF702FB02463B6829
:104D2000D31A3A6A9A4202D33B6A002B01D1032379
:104D30003AE0FB681B68DB6803F00403002B23D018
:104D4000BB68802B20D0BB68402B1DD0FB681B6844
:104D50001B6803F00803082B16D100237B61FB6856
:104D60001B681B687B61FB681B685B687B617B69F8
:104D7000F86800F056F8FB6808225A64FB680022C5
:104D800083F8402001230FE0FB681B681A68BB68AA
:104D90001340BA689A420CBF01230023DBB21A46C3
:104DA000FB799A42B4D0002318461837BD4680BD1F
:104DB00080B485B000AFF860B9601346FB80FB6833
:104DC000BA689A62FB68FA889A85FB68FA88DA857D
:104DD000FB6800225A64FB68222283F84220FB68A9
:104DE0001B69002B07D0FB681B68DA68FB681B682F
:104DF00042F48072DA60FB681B685A69FB681B68C2
:104E000042F001025A61FB681B68DA68FB681B68A4
:104E100042F02002DA60002318461437BD4680BCF9
:104E2000704780B495B000AF78607B681B680C3326
:104E30007B637B6B53E8003F3B633B6B23F49073D6
:104E4000FB647B681B680C33FA6C3A64FB63F96B98
:104E50003A6C41E80023BB63BB6B002BE5D17B6858
:104E60001B6814333B623B6A53E8003FFB61FB69FC
:104E700023F00103BB647B681B681433BA6CFA62CD
:104E8000BB62B96AFA6A41E800237B627B6A002B45
:104E9000E5D17B681B6B012B19D17B681B680C3338
:104EA000FB60FB6853E8003FBB60BB6823F0100366
:104EB0007B647B681B680C337A6CBA617B617969AF
:104EC000BA6941E800233B613B69002BE5D17B686F
:104ED000202283F842207B6800221A6300BF5437E7
:104EE000BD4680BC704780B584B000AF78607B68F9
:104EF0005B6AFB60FB680022DA85FB680022DA84CB
:104F0000F868FFF7E8FE00BF1037BD4680BD80B4EB
:104F100085B000AF78607B6893F84130DBB2212B1D
:104F20003ED17B689B68B3F5805F14D17B681B69B9
:104F3000002B10D17B681B6AFB60FB681B881A463C
:104F40007B681B68C2F308025A607B681B6A9A1C64
:104F50007B681A6208E07B681B6A591C7A681162D8
:104F60001A787B681B685A607B68DB8C9BB2013BBC
:104F70009BB27A681946D184002B0FD17B681B68DD
:104F8000DA687B681B6822F08002DA607B681B6845
:104F9000DA687B681B6842F04002DA60002300E0B8
:104FA000022318461437BD4680BC704780B582B0D6
:104FB00000AF78607B681B68DA687B681B6822F04A
:104FC0004002DA607B68202283F841207868FFF78E
:104FD00079FE002318460837BD4680BD80B58CB0E9
:104FE00000AF78607B6893F84230DBB2222B40F050
:104FF000AE807B689B68B3F5805F17D17B681B69C7
:10500000002B13D10023FB627B689B6ABB627B6829
:105010001B685B689BB2C3F308039AB2BB6A1A8031
:105020007B689B6A9A1C7B689A6226E07B689B6A15
:10503000FB620023BB627B689B68B3F5805F07D08F
:105040007B689B68002B0AD17B681B69002B06D10B
:105050007B681B685B68DAB2FB6A1A7008E07B68E1
:105060001B685B68DBB203F07F03DAB2FB6A1A707D
:105070007B689B6A5A1C7B689A627B68DB8D9BB25B
:10508000013B9BB27A681946D185002B5DD17B68C4
:105090001B68DA687B681B6822F02002DA607B6894
:1050A0001B68DA687B681B6822F48072DA607B68B0
:1050B0001B685A697B681B6822F001025A617B6891
:1050C000202283F842207B6800225A637B681B6B96
:1050D000012B35D17B6800221A637B681B680C3377
:1050E0007B617B6953E8003F3B613B6923F0100320
:1050F0007B627B681B680C337A6A3A62FB61F969F0
:105100003A6A41E80023BB61BB69002BE5D17B68AB
:105110001B681B6803F01003102B0AD10023FB60EF
:105120007B681B681B68FB607B681B685B68FB60B7
:10513000FB687B689B8D19467868FFF7D5FD02E018
:105140007868FCF759FC002302E0002300E002230A
:1051500018463037BD4680BD80B584B000AF78605A
:105160007B681B681B6923F440517B68DA687B68A5
:105170001B680A431A617B689A687B681B691A433B
:105180007B685B691343BB607B681B68DB6823F447
:10519000B05323F00C037A681268B9680B43D360EC
:1051A0007B681B685B6923F440717B689A697B6844
:1051B0001B680A435A617B681B682C4A934203D1DF
:1051C000FEF70AF8F86002E0FDF7F2FFF860FA680F
:1051D00013469B0013449A001A447B685B689B004B
:1051E000B2FBF3F3224AA2FB03235B091901FA681D
:1051F00013469B0013449A001A447B685B689B002B
:10520000B2FBF3F21A4BA3FB02035B09642000FB21
:1052100003F3D31A1B013233154AA2FB03235B09A4
:1052200003F0F0031944FA6813469B0013449A00F4
:105230001A447B685B689B00B2FBF3F20C4BA3FB48
:1052400002035B09642000FB03F3D31A1B01323312
:10525000074AA2FB03235B0903F00F027B681B686C
:105260000A449A6000BF1037BD4680BD0038014037
:105270001F85EB51002B2DE9F0471D46BBBF03F105
:1052800000431D4600232D2388B01446B8BF1446A2
:10529000129A109E1370149BDDF84CA023F0200886
:1052A000B8F1460F05D0B8F1450F00D10136022301
:1052B00000E0032307AA049206AACDE902A2CDE9E1
:1052C000003622462B4601F0BBF8B8F1470F0746DF
:1052D00019D1119BDB070ED500EB06090022002334
:1052E00020462946FBF760FB08B1CDF81C90302220
:1052F000079B4B451ED33846079B159ADB1B136053
:1053000008B0BDE8F087B8F1460F00EB0609E5D11B
:105310000378302B0AD10022002320462946FBF7D0
:1053200043FB18B9C6F10106CAF80060DAF800308C
:105330009944D3E7591C07911A70D9E7F7B50029AA
:10534000B6BF2D232B23494209290270437029DD62
:105350000DF107031D460A27B1FBF7F61A4607FBB6
:105360001614303402F8014C0C46632C314603F11C
:10537000FF33F1DC3031941E03F8011C2346411C3D
:10538000AB420AD30DF109039B1AAC4288BF00233C
:1053900002330344181A03B0F0BD13F8016B01F88F
:1053A000016FEDE7302330318370C170031DF1E7E9
:1053B0002DE9F04F91B00C46DDF8688016461F4687
:1053C000054600F01DFF036818460893FAF7C0FE73
:1053D00000230E93D8F800300990073323F0070319
:1053E00003F1080294F818A0D4F800B0C8F800201F
:1053F000D3E9008929F000430B93CDF828804FF0C2
:10540000FF32DDE90A01C4E912899C4BFBF7FEFA81
:1054100070BBDDE90A014FF0FF32984BFBF7D8FA79
:1054200030BB0022002340464946FBF7C7FA10B1C3
:105430002D2384F84330924A924BBAF1470F94BF20
:105440009046984603234FF0000923612BF0040394
:10545000236033462146284600970FAA00F0D4F96E
:10546000013040F090804FF0FF3011B0BDE8F08F78
:1054700042464B4640464946FBF7C8FA48B14B46C0
:10548000002BB8BF2D23804AB8BF84F843307F4B30
:10549000D3E763680AF0DF015A1C3FD1062363603B
:1054A00000224BF48063236006920EAACDE904A289
:1054B0000DAA03920DF13302CDE901326368424631
:1054C000009328464B460A91FFF7D4FE0A9980467E
:1054D00047290D9928D1C81C02DB6368994240DD39
:1054E000AAF1020A5FFA8AFA5246013904F1500021
:1054F0000D91FFF723FF0E9A81461318012A2361AD
:1055000002DC2268D20701D5013323619DF83330D4
:10551000002B9ED02D2384F843309AE74729BFD132
:10552000002BBDD10123BAE7BAF1650FDCD9BAF17E
:10553000660F18D1002963680BDD216113B9226859
:10554000D00702D501330B4423614FF00009A16558
:10555000DCE713B92268D20701D50233F4E701234F
:10556000F2E74FF0670A0E9B994205DB2368216141
:10557000D807EAD54B1CE7E70029CCBF0122C1F1CF
:1055800002021344E0E723685A0507D42369424620
:1055900031462846B84701302BD164E7BAF1650F90
:1055A00040F2DC80D4E9120100220023FBF7FCF971
:1055B000002833D0012331462846354AB847013008
:1055C0003FF451AFDDE90D38434502DB2368D807CE
:1055D0000FD5DDE9082331462846B84701303FF4AE
:1055E00042AF4FF0000908F1FF3804F11A0AC8452C
:1055F00009DC23689B0700F10281E0680F9B984259
:10560000B8BF184631E70123524631462846B8470D
:1056100001303FF428AF09F10109E8E70D9B002BA9
:1056200038DC012331462846194AB84701303FF497
:105630001AAFDDE90D3959EA030302D12368D9070E
:10564000D7D5DDE9082331462846B84701303FF475
:105650000AAF4FF0000A04F11A0B0D9B5B42534551
:1056600001DC4B4693E701235A4631462846B847AA
:1056700001303FF4F8AE0AF1010AEEE7FFFFEF7FD9
:105680006EA3000872A3000876A300087AA300089E
:1056900008A70008A36DDDF838A05345A8BF5346FE
:1056A000002B994636DC4FF0000B29EAE97904F12A
:1056B0001A02A36D0A93A3EB09035B4531DC0D9B32
:1056C0009A453ADC2368DA0737D40D9BAAEB030925
:1056D0000A9BAAEB03039945A8BF9946B9F1000FAD
:1056E00033DC4FF0000829EAE97904F11A0B0D9B2D
:1056F000AAEB0303A3EB090343457FF77AAF01232A
:105700005A4631462846B84701303FF4ACAE08F15E
:105710000108ECE7424631462846B8470130C2D17D
:10572000A1E60123314628460A92B84701303FF4EA
:105730009AAE0A9A0BF1010BBBE73146DDE908236B
:105740002846B8470130C0D18DE60A9A4B4631460B
:1057500028464244B8470130C3D184E6DDF838A07A
:10576000BAF1010F01DCDB0736D501234246314691
:105770002846B84701303FF476AEDDE908233146CC
:105780002846B84701303FF46EAED4E9120100223A
:1057900000230AF1FF3AFBF707F9C0B9534608F1B5
:1057A000010231462846B84701300CD15BE601239F
:1057B0005A4631462846B84701303FF454AE08F106
:1057C0000108D045F3DB4B4604F15002E0E64FF010
:1057D000000804F11A0BF4E701234246E1E7012334
:1057E0004A4631462846B84701303FF43CAE08F1FE
:1057F0000108E3680F995B1A4345F0DCFDE64FF0C2
:10580000000804F11909F4E72DE9F0471646984617
:105810008A680B6907469342B8BF1346336091F814
:1058200043200C46DDF820900AB101333360236831
:10583000990642BF336802333360256815F00605C8
:1058400006D104F1190AE36832689B1AAB422BDCDB
:1058500094F843302268003B18BF0123920630D4ED
:105860004146384604F14302C847013023D023683B
:10587000226903F00603042B14BF002533684FF0A0
:10588000000608BFE56804F11A0408BFED1A54F8D1
:10589000123C08BF25EAE5759342C4BF9B1AED1878
:1058A000B5421AD1002008E001235246414638464D
:1058B000C847013003D14FF0FF30BDE8F087013514
:1058C000C1E73020E11881F843005A1C94F84510D4
:1058D0002244023382F84310C2E7012322464146A4
:1058E0003846C8470130E6D00136D9E72DE9FF47F1
:1058F0000F7E9146782F80460C469A460C9E01F109
:10590000430207D8622F0AD8002F00F0D380582F07
:1059100000F0BA8004F1420684F842703AE0A7F140
:105920006303152BF6D801A151F823F0855900081F
:10593000995900081559000815590008155900080B
:1059400015590008995900081559000815590008FB
:1059500015590008155900089B5A0008C35900083A
:10596000555A00081559000815590008BD5A000875
:1059700015590008C35900081559000815590008A1
:105980005D5A000833681A1D1B68326004F1420634
:1059900084F8423001239EE033682068191D31608D
:1059A000060601D51D6803E04506FBD5B3F9005096
:1059B000002D03DA2D236D4284F843300A23594821
:1059C00011E021683368080653F8045B02D44906E5
:1059D00048BFADB26F2F336014BF0A23082351486C
:1059E000002184F843106668002EA8BF2168A660D5
:1059F000A4BF21F0040121600DB9002E4BD0164642
:105A0000B5FBF3F103FB1157C75D06F8017D2F4687
:105A1000BB420D46F4D9082B0BD12368DF0708D50C
:105A2000236961689942DEBF302306F8013C06F124
:105A3000FF36921B22614B4621464046CDF800A01E
:105A400003AAFFF7E1FE01304AD14FF0FF3004B066
:105A5000BDE8F087236843F02003236078273248AD
:105A600084F84570236831681F0651F8045B02D43E
:105A70005F0648BFADB23160D90744BF43F0200391
:105A800023601DB11023ABE72648E9E7236823F024
:105A900020032360F6E71646BDE733682568181D26
:105AA000616930602E061B6801D5196002E0680646
:105AB000FBD51980002316462361BCE7336800211B
:105AC0001A1D32601E686268304600F010FC08B192
:105AD000801B606063682361002384F84330AAE779
